:020000040000fa
:080000000002040000000000f2
:020000040000fa
:1000080004520000085200000c5200001052000078
:100018001452000000520000185200000052000064
:100028001c520000205200002452000028520000f8
:100038002c520000005200003052000034520000e0
:10004800385200003c520000405200004452000068
:10005800485200004c520000505200005452000018
:10006800585200005c5200006052000064520000c8
:10007800685200006c520000705200007452000078
:1000880078520000005200007c52000080520000ac
:1000980084520000885200008c5200000052000078
:1000a80000520000005200009052000094520000dc
:1000b800985200009c520000a0520000005200001c
:1000c800a4520000a852000000520000ac520000e8
:1000d800b0520000b4520000b8520000bc520000f8
:1000e800c0520000c4520000c8520000cc520000a8
:1000f80000520000005200000052000000520000b0
:10010800005200000052000000520000005200009f
:1001180000520000d0520000d4520000d852000013
:10012800dc520000e052000000520000e4520000df
:10013800e8520000ec520000f052000000520000ab
:10014800005200000052000000520000f45200006b
:1001580000520000f8520000005200000052000057
:1001680000520000fc52000000530000045300003d
:10017800085300000c5300001053000014530000f3
:10018800185300001c5300002053000024530000a3
:10019800285300002c530000305300003453000053
:1001a800385300003c530000405300004453000003
:1001b800485300004c5300005053000054530000b3
:1001c800585300005c530000605300006453000063
:1001d800685300006c530000705300007453000013
:1001e8000052000000520000005200007853000046
:1001f8007c530000805300008453000088530000a3
:100208008c53000090530000945300009853000052
:100218009c530000a0530000a4530000a853000002
:1002280000520000ac530000b0530000b45300006b
:10023800b8530000bc530000c0530000c453000072
:10024800c8530000cc530000d0530000d453000022
:10025800d8530000dc530000005200000052000098
:100268000052000000520000e0530000005200005d
:1002780000520000e4530000e85300000052000060
:10028800ec530000f0530000005200000052000040
:1002980000520000f4530000005200000052000019
:1002a80000520000005200000052000000520000fe
:1002b80000520000005200000052000000520000ee
:1002c800f8530000fc5300000054000004540000e0
:1002d800085400000c54000010540000145400008e
:1002e800185400001c54000020540000245400003e
:1002f8002854000000520000005200000052000084
:10030800005200000052000000520000005200009d
:10031800005200002c54000030540000005200002d
:10032800005200000052000000520000005200007d
:10033800005200000052000000520000005200006d
:10034800005200000052000000520000005200005d
:10035800005200000052000000520000005200004d
:10036800005200000052000000520000005200003d
:10037800005200000052000000520000005200002d
:10038800005200000052000000520000005200001d
:10039800005200000052000000520000005200000d
:1003a80000520000005200000052000000520000fd
:1003b80000520000005200000052000000520000ed
:1003c80000520000005200000052000000520000dd
:1003d80000520000005200000052000000520000cd
:1003e80000520000005200000052000000520000bd
:0803f800005200000052000059
:020000040000fa
:100400002f6321000eff27000e018800000020004e
:100410000000e000020032000001200020028800fd
:1004200014000700570107000000e00003003a0035
:10043000009321000100200002003700000020008e
:1004400001002000810f70004220ae000f00070065
:10045000000020000000e0004220ae00000002008a
:1004600000000000b21c0200000000000040da00a2
:100470000000fe00800020000000e00002003200ca
:10048000002020009001880000000600a1028800e2
:10049000800478000000eb001f003700e284440075
:1004a00054a0b4009905ba00e284440054a0b400fa
:1004b0009906ba00e284440054a0b4000006eb00a0
:1004c000476fde00fd07b200ae018800636ce100fb
:1004d00003003a000ad801000000eb000e003700cc
:1004e000606ce10008003a00004deb000a05e800ee
:1004f000020039003420ec000af0a0008b05e9006e
:10050000f9ff3e00040037006168e100010032009d
:100510000086eb000b00070019c7ba001905ba00e6
:100520000e04e00003003a000a00e000dbff3a009e
:1005300000000600fe07b200ae0288008a047800c0
:10054000f5ff37000cd0a300e20f4d001c003b006c
:1005500089027800354dba000a05e800020039002a
:100560003420ec000af0a0008b05e9000f003200f7
:10057000254dba000a05e800020039003420ec00dd
:100580000af0a0008b05e900080032000c00e00032
:100590000600320015cdba000a05e8000200390055
:1005a0003420ec000af0a0008b05e9008984e80003
:1005b00054a0b4000b00e000e2ff3a000000060087
:1005c0009902ba00055d78008b05e900f7ff32005b
:1005d000c82ade00055d78008b05e900f3ff3200d4
:1005e0000c00e000f1ff320019ddba00eeff370029
:1005f0006100e10001003200100005005400f80025
:1006000050102000a002880000f927001000ba0056
:100610005400f9000700260000f0a6008703d1006f
:100620000703780001c4fe000003eb000120200056
:100630009101880041ce2900111303008703e900ce
:10064000fdff3a0000f0a7000000050000f0a00048
:1006500080c4fe0086037800f3ff37000408200002
:10066000010037000002eb006100e10001003200f0
:10067000100005003200f8003400f8008102780014
:10068000930188003200be000100e0000c0032003f
:100690000470a70000f0a00032037800c733de002a
:1006a000848343004220af008703e800a70188004d
:1006b000f607b2007f30e100040032002000200085
:1006c0003400f9003200f900000006008100e90062
:1006d0000500e00003003a00018009003210030029
:1006e000e8ff37000180090032900300d561ae00b9
:1006f000e4ff370030002000f1ff370050052000f4
:10070000b00e8800a00a2000b00e8800d3e1a80037
:100710000000060050052000b00e8800a00a20004e
:10072000b00e8800d3e1a900000006003600f800f2
:10073000809fbe00829fbe00849fbe00869fbe0039
:100740000000fa00c028a9000000eb00800c0700a0
:100750000080fa004f03be004f02be004f01be00f2
:100760004f00be003600f900004006003600f800d9
:10077000809fbe00829fbe00849fbe00869fbe00f9
:100780000000fa00650c0700c048a9001000200016
:100790006f0c07000080fa004f03be004f02be003e
:1007a0004f01be004f00be003600f90000400600b9
:1007b0003600f800809fbe00829fbe00849fbe006e
:1007c000869fbe000000fa00c068a900200020003b
:1007d0005f0c07000080fa004f03be004f02be000e
:1007e0004f01be004f00be003600f9000040060079
:1007f0003600f800809fbe00829fbe00849fbe002e
:10080000869fbe000000fa00c088a90030002000ca
:100810004f0c07000080fa004f03be004f02be00dd
:100820004f01be004f00be003600f9000040060038
:100830003600f800809fbe00829fbe00849fbe00ed
:10084000869fbe000000fa00c608a90070002000c4
:100850003f0c07000080fa004f03be004f02be00ad
:100860004f01be004f00be003600f90000400600f8
:100870003600f800809fbe00829fbe00849fbe00ad
:10088000869fbe000000fa00214680000010200074
:10089000008060000000e00003003200c508a900ed
:1008a000c00020002a0c0700214680000002200022
:1008b000008060000000e00003003200c4a8a9002e
:1008c00090002000220c070020468000700060008d
:1008d0000000e00003003200c488a900a00020004e
:1008e0001b0c070020468000610060000000e00053
:1008f00003003200c408a900b0002000140c070057
:10090000ffff37003600f800809fbe00829fbe00c8
:10091000849fbe00869fbe000000fa00240c0700e2
:100920001048a9000080fa004f03be004f02be002d
:100930004f01be004f00be003600f9000040060027
:100940003600f800809fbe00829fbe00849fbe00dc
:10095000869fbe000000fa00180c07001068a9006e
:100960000080fa004f03be004f02be004f01be00e0
:100970004f00be003600f900004006000040da00db
:100980000000fe0000000500800178000200370032
:10099000b15978000201e9000200e000fcff3a00d2
:1009a000000006008001780081027800810f50006d
:1009b0004100320002824000840f500003003100e9
:1009c00002024000848f500001003900eeff370022
:1009d00000826800810f50001b0031000408a30052
:1009e00005003200150037000200e000320032003e
:1009f0000201e900b15978000308a300faff3a00a8
:100a000003037800820278000102780002003700b8
:100a1000b41978000281e900e10f5100fcff3e00ab
:100a2000618162000500a1008501430085824000cc
:100a300002003700b55978000201e9000200e00029
:100a4000fcff3a00000006000408a30018003a006a
:100a5000060037000200e000170032000201e90042
:100a600082014000028240009449780082014000e7
:100a70000308a300f7ff3a00820178000400370062
:100a80000281e9000202400082824000150a7800db
:100a9000e10f5100faff3e00618161000400370060
:100aa0000201e9008201400002824000944978007e
:100ab0000200e000faff3a0000000600889fbe0036
:100ac0008a9fbe00800478000200e0005a003200d5
:100ad00001407800814c780082814400f1f99f0048
:100ae000e20f51005400360091449800a144980050
:100af000e1f99f00d1f99f00e60f51004e0036004a
:100b0000b1449800c1f99f00e80f51004a00360037
:100b10000905ea00630565000a8444000a055100de
:100b2000c1ff2f00010565000080fb008000eb0085
:100b3000121020001310200043000700008cbe009c
:100b40000a01440060b99f0071b99f00e80f550089
:100b500039003600200498003104980040049800c1
:100b60005104980020b99f0031b99f0040b99f00ff
:100b700051b99f00f80f55002f003600600498000f
:100b800071049800000c9800110c9800200c98003b
:100b9000310c9800400c9800510c980020b19f0037
:100ba00031b19f0040b19f0051b19f0060b19f00e3
:100bb00071b19f0000b99f0011b99f0064016400ea
:100bc0007801410002044400020555006011b8009c
:100bd0000203be000002be000403be006022b80093
:100be0000000720081807200020173008381730033
:100bf0000f00370008027800009abe00029abe007b
:100c0000009abe000292be00000c9800110c9800e1
:100c1000220c9800330c9800400c9800510c98005e
:100c2000620c9800730c98000a02b1000802b00030
:100c3000ff0f5500efff3e00090078004f05be0092
:100c40004f04be0000000600020ab900001bb900f4
:100c50000200b8008100420081004300000006004d
:020000040000fa
:100c600000500000000000000050000000000000e4
:020000040000fa
:100c70000000000000000000ab41000041810000c6
:100c8000fdc20000c3830000568300008202000002
:100c900051c40000c6860000fa85000087070000e6
:100ca000ac06000005050000074700004484000072
:100cb00009c90000cc8c0000a28800008d0d000046
:100cc000f40b00000f0f00005f4a00004e8e000082
:100cd000580d00000a0a0000f34c00004b8b000086
:100ce000a5cf0000c98900000e8e00008808000012
:100cf000b9d30000d89800001292000099190000a2
:100d0000441100001b1b0000ef5000005a9a000025
:100d1000e81700001e1e0000435600005f9f000001
:100d200015d50000dd9d0000be9400009c1c000055
:100d3000b01a0000141400001b5b00005595000061
:100d40004dd80000d7970000e699000096160000e5
:100d5000e1de0000d29200004a9f000093130000e1
:100d60001c1c000011110000b75d00005090000035
:100d7000d9e60000f0b0000072a70000b131000019
:100d800024240000333300008f65000072b200009d
:100d900088220000363600002363000077b7000089
:100da00075e00000f5b50000dea10000b4340000dd
:100db000d02f00003c3c00007b6e00007dbd000099
:100dc0002ded0000ffbf000086ac0000be3e00001d
:100dd00081eb0000faba00002aaa0000bb3b000029
:100de0007c29000039390000d768000078b800007d
:100df0006035000028280000cb74000069a90000bd
:100e00009df70000ebab000036b60000aa2a0000f8
:100e100031f10000eeae00009ab00000af2f0000ec
:100e2000cc3300002d2d0000677200006cac000078
:100e300069fc0000e4a40000c2bd0000a52500007c
:100e4000943e0000272700003f7f000066a60000b8
:100e500038380000222200009379000063a30000cc
:100e6000c5fa0000e1a100006ebb0000a020000058
:100e7000198c0000a0e00000b2cd0000e16100008c
:100e8000e44e0000636300004f0f000022e2000008
:100e90004848000066660000e309000027e70000fc
:100ea000b58a0000a5e500001ecb0000e464000048
:100eb000104500006c6c0000bb0400002ded00002c
:100ec000ed870000afef000046c60000ee6e0000a8
:100ed00041810000aaea0000eac00000eb6b0000bc
:100ee000bc430000696900001702000028e8000008
:100ef000a05f0000787800000b1e000039f90000a8
:100f00005d9d0000bbfb0000f6dc0000fa7a0000eb
:100f1000f19b0000befe00005ada0000ff7f0000d7
:100f20000c5900007d7d0000a71800003cfc00006b
:100f3000a9960000b4f4000002d70000f575000087
:100f40005454000077770000ff15000036f60000cb
:100f5000f8520000727200005313000033f30000d7
:100f600005900000b1f10000aed10000f07000006b
:100f7000c06a0000505000006b2b000011d100002f
:100f80003da8000093d3000096e90000d252000073
:100f900091ae000096d600003aef0000d75700004f
:100fa0006c6c000055550000c72d000014d40000e3
:100fb000c9a300009cdc000062e20000dd5d0000cf
:100fc000346100005f5f00009f2000001ede000013
:100fd000986700005a5a0000332600001bdb00000f
:100fe00065a5000099d90000cee40000d8580000a3
:100ff00079b9000088c80000d2f80000c949000093
:10100000847b00004b4b00002f3a00000aca00000e
:10101000287d00004e4e0000833c00000fcf0000f2
:10102000d5bf00008dcd00007efe0000cc4c00003e
:101030007070000044440000db31000005c5000072
:101040008db2000087c7000026f30000c6460000ee
:1010500021b4000082c200008af50000c3430000f2
:10106000dc760000414100007737000000c000003e
:1010700099590000004000003218000041c10000f2
:10108000649b0000c3c30000cfda0000824200006e
:10109000c89d0000c6c6000063dc00008747000052
:1010a000355f0000054500009e1e000044c400009e
:1010b00090900000cccc00003bd100008d4d000092
:1010c0006d5200000f4f0000c61300004ece00000e
:1010d000c15400000a4a00006a1500004bcb000012
:1010e0003c960000c9c9000097d70000884800005e
:1010f000208a0000d8d800008bcb0000995900004e
:10110000dd4800001b5b0000760900005ada000091
:10111000714e00001e5e0000da0f00005fdf00006d
:101120008c8c0000dddd000027cd00009c5c000001
:1011300029430000145400008202000055d500002d
:10114000d4810000d7d700007fc000009656000071
:1011500078870000d2d20000d3c60000935300006d
:1011600085450000115100002e04000050d0000001
:1011700040bf0000f0f00000ebfe0000b171000085
:10118000bd7d000033730000163c000072f20000c9
:10119000117b000036760000ba3a000077f70000b5
:1011a000ecb90000f5f5000047f80000b474000049
:1011b000497600003c7c0000e23700007dfd000025
:1011c000b4b40000ffff00001ff50000be7e000069
:1011d00018b20000fafa0000b3f30000bb7b000075
:1011e000e5700000397900004e31000078f8000009
:1011f000f96c000028680000522d000069e9000029
:1012000004ae0000ebeb0000afef0000aa6a0000a4
:10121000a8a80000eeee000003e90000af6f000098
:10122000556a00002d6d0000fe2b00006cec0000e4
:10123000f0a50000e4e400005be40000a565000008
:101240000d67000027670000a626000066e6000084
:10125000a1610000226200000a20000063e3000098
:101260005ca30000e1e10000f7e20000a0600000e4
:1012700080d50000a0a000002b940000e121000018
:101280007d17000063230000d656000022a2000054
:10129000d1110000662600007a50000027a7000048
:1012a0002cd30000a5a5000087920000e4240000d4
:1012b000891c00006c2c0000225d00002dad000098
:1012c00074de0000afaf0000df9f0000ee2e0000d4
:1012d000d8d80000aaaa000073990000eb2b0000e8
:1012e000251a0000692900008e5b000028a8000074
:1012f00039060000783800009247000039b9000034
:10130000c4c40000bbbb00006f850000fa3a0000b7
:1013100068c20000bebe0000c3830000ff3f0000a3
:10132000950000007d3d00003e4100003cbc0000f7
:1013300030cf0000b4b400009b8e0000f5350000f3
:10134000cd0d000077370000664c000036b6000077
:10135000610b000072320000ca4a000033b3000083
:101360009cc90000b1b1000037880000f0300000d7
:101370005933000050100000f2720000119100007b
:10138000a4f10000939300000fb00000d2120000ff
:1013900008f7000096960000a3b60000d7170000db
:1013a000f5350000551500005e740000149400002f
:1013b00050fa00009c9c0000fbbb0000dd1d0000fb
:1013c000ad3800005f1f0000067900001e9e00007f
:1013d000013e00005a1a0000aa7f00001b9b00007b
:1013e000fcfc00009999000057bd0000d8180000cf
:1013f000e0e00000888800004ba10000c90900005f
:101400001d2200004b0b0000b66300000a8a00009a
:10141000b12400004e0e00001a6500000f8f00007e
:101420004ce600008d8d0000e7a70000cc0c00000a
:10143000e92900004404000042680000058500001e
:1014400014eb000087870000bfaa0000c60600005a
:10145000b8ed00008282000013ac0000c30300005e
:10146000452f000041010000ee6e000000800000ea
:10147000809fbe00821f7800c00021000110200064
:10148000a102880081632000022020003118ba00e8
:101490000201e900fdff3a004f0178004f00be0055
:1014a000000006005400f800889fbe00380a0200c1
:1014b000000000000404be002800b0000980b00055
:1014c0000203be00c40021000600b00005003a007f
:1014d0000700b00003003a000001eb008001eb00c0
:1014e000070037000830e10002003a000938e10047
:1014f00031003200a70288001601ba009681ba00b6
:10150000c80ade0082c26a00c22add0085024200eb
:10151000c808dd000080fd00814068000040eb004d
:10152000350068009580680081026900c82ade00e5
:10153000c22add0085024200c808dd000080fd00ef
:10154000814068000040eb0035006800958068002d
:10155000c80ade0083c26a00c22add00850242009a
:10156000c808dd000080fd00814068000040eb00fd
:10157000350068009580680081826900c82ade0015
:10158000c22add0085024200c808dd000080fd009f
:10159000814068000040eb003500680095806800dd
:1015a0002600b0000780b0000830e100d1ff3a000b
:1015b0000938e100cfff3a004f04be005400f900a3
:0415c0000000060021
:020000040000fa
:1015c4001e00fa00889fbe008a9fbe00e1502100e1
:1015d40066004700010878006000b800008fbe0074
:1015e400f1002000e0502100fc06070068004700dd
:1015f400f2002000e1502100e2fc070066004700f1
:1016040010017800eb014100934178008381fb00d5
:101614006c024100144278000482fb004822dd0081
:101624008481710003007800ed014100934178004a
:101634008381fb006e014100124178000281fb00ae
:101644004811dd00028171008200780066014700c4
:1016540012017800e5014100934178008381fb0089
:1016640066014100124178000281fb004811dd004f
:10167400028171008001eb0000004100818049007b
:1016840061025000e08258006600470010017800b3
:10169400eb014100934178008381fb006c0341001e
:1016a400164378000683fb004833dd008681710011
:1016b40003007800ed014100934178008381fb0031
:1016c4006e014100124178000281fb004811dd00e7
:1016d40002817100820078000401be00b207070095
:1016e4000004e000610032008000eb006400470069
:1016f40001087800450037006600470010017800b3
:10170400eb014100934178008381fb006c024100ae
:10171400144278000482fb004822dd0084817100b9
:1017240003007800ed014100934178008381fb00c0
:101734006e014100124178000281fb004811dd0076
:101744000281710082007800640147001201780070
:101754000201d1008001eb000000410081804900ba
:101764007a0347000002be0042002000030020006c
:1017740006007800340507007a0047001001be0017
:10178400f0ff2f000100200002027800030178001e
:10179400800178008100780003006200810061000c
:1017a40081047800000478000802be007a00470033
:1017b4001000be004009de0003002000f00f2000ee
:1017c4000100200002037800030178008001780002
:1017d40081007800030063008100610081057800c6
:1017e400000578000a00be0004004000858048001f
:1017f4001e0f40005e974800640047001000780008
:10180400e4004000640047000108780066004700d7
:1018140010007800e5004000914078008180fb00d2
:1018240066004000104078000080fb004800dd00a6
:1018340000807000e400470091007800810f5000a0
:10184400adff3e009e007800780047000108780054
:1018540011c0b300770047000148780068004700d2
:1018640021012000d806070012003700e1cfb300a1
:1018740077004700014878006c004700900078002a
:10188400f00f2000808060006c00470001087800a1
:101894006e0047009000780000f02f008080600008
:1018a4006e0047000108780068004700010120002d
:1018b400c50607007700470010407800e14f50004c
:1018c40002003a000000eb00010037003000200065
:1018d4004f05be004f04be000080fa000000060061
:020000040000fa
:1018e4001800fa00889fbe00e0502100000f780025
:1018f40060002000b60707000080fb00c800dd0080
:101904000e80e8000108780050002000b0070700ae
:101914000080fb008e80e800910078008100700058
:101924000e80e800010878000b0607008e80e800ae
:1019340091007800ef804000810f500002003100d8
:1019440020002000a00037000e80e800100078007e
:101954006f00400080007800e05021001f0607005f
:1019640068004700f2002000e150210005fc070058
:1019740001c1b3006b0047000148780011c0b300f7
:1019840077004700014878001e017800eb01410010
:10199400934178008381fb006c024100144278007b
:1019a4000482fb004822dd0084817100030078007a
:1019b400ed014100934178008381fb006e014100f9
:1019c400124178000281fb004811dd0002817100a0
:1019d40082007800640147000089be000e80e800a0
:1019e40090007800100f2000808f500035003e00da
:1019f4001e007800e7004000914078008180fb00e1
:101a040068024000144278000482fb004822dd0092
:101a14008480700001017800e90040009140780062
:101a24008180fb006a004000104078000080fb00c9
:101a34004800dd0000807000800178009e0078007e
:101a4400ef8240000e80e800100078006104b800c6
:101a54001e0278006b034200164378000683fb00e5
:101a6400ec034200974378008783fb00c83bdd000a
:101a740007037300060078006d03420016437800e4
:101a84000683fb006e024200144278000482fb00cd
:101a94004822dd0004027300840078000203be00c3
:101aa400050278000801be00400307000000e000c2
:101ab40007003200e1cfb300770047000148780007
:101ac40003003700e1cfb3007700470001487800f6
:101ad40068004700010120003b0607001e01780052
:101ae400e7014100934178008381fb0068024100d3
:101af400144278000482fb004822dd0084817100d6
:101b040003007800e9014100934178008381fb00e0
:101b14006a014100124178000281fb004811dd0096
:101b240002817100820078000081ea008181ea006c
:101b34001e007800f10f2000810061006702400060
:101b4400144278006042620001427200e7004000e3
:101b540084487800c810de0068024000144278000f
:101b64006042620001427200e8004000844878004c
:101b7400f10f200081806100690240001442780066
:101b84006042620001427200e9004000844878002b
:101b9400c818de006a01400012417800604161000b
:101ba400814071006a0040000148780077004700d6
:101bb40010407800e14f500002003a000000eb00b2
:101bc40001003700300020004f04be000080fa00fe
:041bd4000000060007
:020000040000fa
:101bd8001200fa00889fbe00f000470080087800d5
:101be80070004700100078000000e000020032009a
:101bf8000040eb00aa003700a0318400b131840016
:101c08000001be0070004700100078004f06070072
:101c180064014700b0050700680047001000be00d7
:101c2800020707000004e000020032000040eb0059
:101c38009b0037006c0047001000be00fb06070041
:101c48000004e000020032000040eb00940037007e
:101c5800680047001001be00f0ff240001002000ca
:101c6800800f5100818f590002003e000040eb00b8
:101c78008b0037006c0047001001be00f0ff240005
:101c880001002000800f5100818f590002003e00a2
:101c98000040eb0082003700680047001001be00da
:101ca800e07f270051002000800f5100818f5900ec
:101cb800020036000040eb00790037006c00470056
:101cc8001001be00e07f270051002000800f510066
:101cd800818f5900020036000040eb007000370089
:101ce800680047001001be006c0047001000be00ed
:101cf800800f5100818f5900020036000040eb0030
:101d080067003700680047001001be00a03184005a
:101d1800b1318400800f5100818f590007003e00c7
:101d28006c0047001001be00a0318400b13184006e
:101d3800800f5100818f5900130031006c0047005b
:101d48001000be000001be007000470010007800bf
:101d5800fe0507000004be00680047001000be0032
:101d68000001be007000470010007800f70507006a
:101d78000802be000001be006000b800c7fd0700f1
:101d8800008fbe003b0037006000b800008fbe0027
:101d9800680047001001be00a0318400b131840002
:101da800800f5100818f590014003200a031840047
:101db800b131840062005000e08058000001be008c
:101dc8007000470010007800e00507000004be001e
:101dd800680047001000be000001be007000470008
:101de80010007800d90507000802be000001be00f7
:101df8001e00be00a9fd0700008fbe006022b800cb
:101e08006011b8001e00be00a4fd0700008fbe00d0
:101e18006022b8006011b8001e00be009ffd0700d8
:101e2800008fbe006c0047001000be000001be001d
:101e38007000470010007800c40507000004be00c9
:101e4800a0318400b131840064004000e080480083
:101e58000001be007000470010007800bb050700b5
:101e68000802be000001be001e00be008bfd070078
:101e7800008fbe00640047001000be003e016800ed
:101e8800ae8168000200be000080700000f0a7006c
:101e98000000ea000000e9004f00de000040780082
:0c1ea8004f04be000080fa00000006009d
:020000040000fa
:101eb4000000fe00e26221000019780001097800a8
:101ec400000006000000fe000000eb008000eb00b4
:101ed400f8ff0700d628ef00000006000000fe000f
:101ee4000000fe00801f7800811f7800821f7800a8
:101ef400e162210012468000c3e8a90031007800a5
:101f0400b046880011007800b0468800d1e8a800e7
:101f14000000000000000000d1e8af00feff370021
:101f240002f0a700c3e8a8004f017800cf007800b2
:101f34004f007800000006000000fe00a2028000ae
:101f4400a10288009080ba001000ba00a2028800a2
:101f5400000006000000fe00a2028000a10288002a
:101f64001000ba00a2028800000006000000fe0073
:101f7400f27f20000001610008003a0032002400d2
:101f84008246880090468800a1468800740f0200ab
:101f94000000000010002000d1a8af0000002000c5
:101fa400000006000000fe00d1e8af00feff37008d
:101fb4000000a700130037000010a700110037002d
:101fc400a1468800904688001000240080468800be
:101fd400a0028000a10f2000a102880001002000bf
:101fe4008208bb008398bb008408bb008598bb00b3
:101ff400740f020000000000a002880010002000fe
:10200400d1a8af0000002000000006000000fe0080
:10201400d1e8af00feff37000000a700140037002e
:102024000010a70012003700a146880090468800df
:10203400a10280001000240080468800a00f200028
:10204400a0028800000020000208bb00f20f20005c
:102054000298bb000308bb000298bb00740f020087
:1020640000000000a102880010002000d1a8af00e9
:1020740000002000000006000000fe00d1e8af00d0
:10208400feff3700f30f20008081610009003a0051
:1020940090468800a14688002000240080468800dd
:1020a400c2468800740f02000000000010002000e7
:1020b400d1a8af0000002000000006000000fe00d0
:1020c400d1e8af00feff3700f30f200080816100ec
:1020d40015003a0090468800a146880010002400ac
:1020e40080468800a00f2000a00288000000200085
:1020f40001082000f40f20003208bb000498bb0044
:102104003208bb000490bb00740f02000000000002
:10211400d2a8ec00d2a8ec002100b100f6ff3a00ee
:1021240010002000d1a8af0000002000000006002d
:10213400f27f2000000061000000060002802f00f2
:1021440000006100f2ff2f00810061000000060022
:020000040000fa
:102154001600fa00881f7800e0502100000f780074
:10216400f1002000e05021001c0407006600470035
:10217400f2002000e150210002fa070001c1b3007f
:1021840069004700014878001e017800eb01410016
:10219400934178008381fb006c0241001442780073
:1021a4000482fb004822dd00848171000300780072
:1021b400ed014100934178008381fb006e014100f1
:1021c400124178000281fb004811dd000281710098
:1021d400820078000e81e8000089be00e1cfb300e0
:1021e40075004700014878001e007800e7004000b1
:1021f400914078008180fb0068024000144278001e
:102204000482fb004822dd00848070000101780014
:10221400e9004000914078008180fb006a004000a2
:10222400104078000080fb004800dd000080700052
:10223400800178001e007800e5004000914078009d
:102244008180fb0066004000104078000080fb00a5
:102254004800dd00008070006103b8001e027800b1
:10226400eb024200954278008582fb006c04420038
:10227400184478000884fb004844dd00888272001a
:1022840005007800ed024200954278008582fb004b
:102294006e024200144278000482fb004822dd00f2
:1022a40004827200840078000202be000601be00af
:1022b400460007000000e00003003a0011c0b3002c
:1022c40075004700014878006600470001012000be
:1022d4003d0407001e017800e701410093417800a6
:1022e4008381fb0068024100144278000482fb00f1
:1022f4004822dd008481710003007800e901410077
:10230400934178008381fb006a0141001241780007
:102314000281fb004811dd00028171008200780017
:102324000081ea008181ea001e007800f10f20009c
:10233400810061006702400014427800604262003c
:1023440001427200e700400084487800c810de00b3
:102354006802400014427800604262000142720048
:10236400e800400084487800f10f2000818061007b
:102374006902400014427800604262000142720027
:10238400e900400084487800c818de006a01400073
:102394001241780060416100814071006a00400090
:1023a400014878007500470010407800e14f500064
:1023b40002003a000000eb0001003700300020006a
:0c23c4004f0478000080fa0000000600c2
:020000040000fa
:1023d0001800fa00881f78006c044700008cbe00cb
:1023e000700047000288be00740047000488be00e9
:1023f0000000eb00000f78000e80e800ec004700c2
:10240000311878002110780011c0b3006600470031
:10241000014878000e80e8001001be0000802f0007
:10242000f1ff2f000202780003017800800178009c
:102430008100780003006200810061008103780060
:10244000000378000601be000e80e8001000be0008
:10245000800f5100818f5900030032008040eb0053
:102460006600470001487800740047001000be0075
:1024700091fe0700280037000e80e8001001be0022
:1024800000802000010020000200400083804800fe
:102490000001be000e80e8001000be0043040700eb
:1024a0000004e000190032000e80e8001001be00b8
:1024b0000000eb0027040700680147000089be0008
:1024c000680047001000be00aafe07000080fb0065
:1024d00000f0a7000000ea000000ea00cf00de00e4
:1024e00066004700014878000e80e8001001be0039
:1024f000008020000100200002004000838048008e
:102500000e81e8000089be00030037008040eb0028
:1025100066004700014878006600470010407800d8
:102520000004e0000f003200700047001000be0001
:102530004b09dd00c501de00830171004b01dd00a8
:102540006c0047001000be0002014000838148007b
:102550000e80e8001000be00800f5100818f5900ee
:10256000c5ff3e0059fe0700660047001040780096
:102570000004a2000004e0000f003a0070004700d1
:102580001000be004b09dd00c501de0083017100b3
:102590004b01dd006c0047001000be00020140004e
:1025a000838148000e80e8001000be00800f5100bb
:1025b000818f59000200320020002000000f7800b7
:1025c0001e0078004f0478000080fa00000006002a
:020000040000fa
:1025d0000401fa00e0502100000f7800f100200013
:1025e000e0502100fe02070064004700f2002000d6
:1025f000e1502100e4f807001e007800e5004000eb
:10260000914078008180fb00660040001040780017
:102610000080fb004800dd00008070008000780032
:10262000000f2000808f50003d003e001e0178000a
:10263000eb014100934178008381fb006c02410073
:10264000144278000482fb004822dd00848171007e
:1026500003007800ed014100934178008381fb0085
:102660006e014100124178000281fb004811dd003b
:1026700002817100820078001e017800e5014100ae
:10268000934178008381fb0066014100124178008c
:102690000281fb004811dd00028171008001eb0026
:1026a00064024700700342000002be00060078008a
:1026b00066010700800078000e80e80001087800bd
:1026c0000e80e800100078000000e00004003a00ee
:1026d00011c0b30073004700014878001f003700a5
:1026e000e1cfb3007300470001487800680047005d
:1026f00090007800f00f20008080600068004700a4
:10270000010878006a0047009000780000f02f0070
:10271000808060006a004700010878000f003700e1
:10272000e1cfb3007300470001487800680047001c
:1027300090007800f00f2000808060006800470063
:10274000010878006a0047009000780000f02f0030
:10275000808060006a004700010878006800470038
:10276000100078004800de00ea0047001101780000
:10277000f10f200081006100c808dd000100700039
:10278000f00040006400470010030700730047009a
:1027900010407800e14f500002003a000000eb00ca
:1027a00001003700300020000080fa000000060021
:020000040000fa
:1027b0002000fa00889fbe00f2024700808abe0017
:1027c000760047000288be007a00470004087800bf
:1027d0007c0047000688be006000b800008fbe0085
:1027e0008000eb0064004700010878007600470095
:1027f0001000be0000007800670060008004eb005d
:10280000000478000800be00e00f5000e08f580080
:1028100047003a00760047001000be008101d10059
:102820000081d300720047001000be00020040008b
:10283000838048000001be00720047001000be0007
:102840005a0307000004e000350032007c00470016
:102850001000be0098fd07006000b800008fbe00a9
:10286000270037001e00be008101d1000081d30087
:10287000720047001000be00020040008380480044
:102880000001be000000eb003203070066014700b4
:102890000089be009e0078007a0047001000780092
:1028a000810040006a0047008200200036f80700df
:1028b0006e0047001001be006a0047001000be0015
:1028c0000202be000001be00660047001000be000c
:1028d000b6fd07000004a2000004e000040032007e
:1028e0003100200064004700010878000a0037002a
:1028f00082002000030020001e0f41005e97490067
:10290000760047001000be001e01be00800f51007f
:10291000818f5900d3ff39006cfd07000700370095
:102920002100200064004700010878000300370000
:10293000110020006400470001087800640047008f
:10294000100078004f04be000080fa00000006006e
:020000040000fa
:102950002a00fa0013000900001feb00005feb00e3
:102960009e02b100a0cab300004f7800b1cbb30003
:102970000e00e80001487800c1ccb3000e80e800ea
:10298000014878006e00470090007800f00f2000aa
:1029900000806000800078000190a0006e00470079
:1029a00001087800700047009000780000f02f00c8
:1029b00000806000800078000100a00070004700e7
:1029c000010878007000470090007800f00f2000a8
:1029d00080806000700047000108780072004700a6
:1029e0009000780000f02f000080600080007800e8
:1029f0000100a00072004700010878007400470041
:102a000090007800f00f20008080600000602500ba
:102a100081007000740047000108780076004700cc
:102a20009000780000f02f008080600040032000bc
:102a30008100700076004700010878007a004700a6
:102a400090007800f00f2000008060008000780087
:102a500001b0a0007a004700010878007c00470020
:102a60009000780000f02f00808060007c0047001c
:102a700001087800c0030700f10f2000810060000a
:102a8000c808dd007801470092017800f20f2000ad
:102a90000281610002817000f8004700820878001e
:102aa000c800de00f00f200000806000fa00470040
:102ab0001101780001f02f00810061008100700099
:102ac0007a00470001087800f1002000e050210062
:102ad000c3010700910220000e0078003b020700ae
:0c2ae0000000eb000080fa00000006007f
:020000040000fa
:102aec000600fa00881f780099010700000f780093
:102afc001e0078000000e00002003a0010002000e8
:102b0c004c0037001e007800ee0f500002003e0013
:102b1c002000200047003700400020002a03070057
:102b2c008e80e800804878005000200026030700c3
:102b3c000084fb0060002000230307000080fb00e2
:102b4c004800dd0000004400ef0040006400470036
:102b5c000108780064004700900078000010200005
:102b6c00808f5000070036000e80e800104078007f
:102b7c00e34f500003003200d00f20009d020700ed
:102b8c002c0037000e80e800104078000080fb001d
:102b9c00e30f50001b003200e30f500007003c0015
:102bac00e10f500013003200e10f50000f003c0009
:102bbc000000e000110032001d003700e90f50004a
:102bcc0012003200e90f500003003c00e80f5000e7
:102bdc001100320016003700ea0f500010003200ce
:102bec00eb0f500010003200110037003afb0700c9
:102bfc001000370073fe07000e00370051ff07006e
:102c0c000c00370050fd07000a003700a202070035
:102c1c000000eb000700370067fa070005003700db
:102c2c00ff00070003003700cc000700010037004d
:102c3c00000037004f0478000080fa000000060006
:020000040000fa
:102c4c001800fa00ee00470080087800700047007a
:102c5c000288be00740047000488be008000eb00b0
:102c6c006400470001087800700047001000be00a7
:102c7c0000007800630060008003eb000003780024
:102c8c000600be00e00f5000e08f580038003a00fc
:102c9c00700047001000be008101d1000081d300fc
:102cac00740047001000be00020040008380480002
:102cbc000001be00740047001000be00380207007f
:102ccc000004e000260032006000b800008fbe0057
:102cdc001c0037001e00be008101d1000081d30012
:102cec00740047001000be000200400083804800c2
:102cfc000001be000000eb00130207006601470054
:102d0c000089be00660047001000be0089fc070069
:102d1c006a0147000089be009e0078006e004700e3
:102d2c001000780001004000ea004700420020003b
:102d3c0012f7070042002000030020001e0f410084
:102d4c005e974900700047001000be001e01be00d7
:102d5c00800f5100818f5900deff390007003700ca
:102d6c0021002000640047000108780003003700b0
:102d7c00110020006400470001087800640047003f
:0c2d8c00100078000080fa000000060033
:020000040000fa
:102d98000000fa00062eef00222eef002008200087
:102da800f07188005a2eef00f001200010708800a2
:102db800d0ff2f00f070880010f42300d071880035
:102dc80020502200b07288000c2eef00282eef0051
:102dd800442eef00602eef000a2eef00262eef00a3
:102de80010002000107288005e2eef00082eef0001
:102df800242eef00402eef005c2eef00f0012000a3
:102e080000708800c0092000e070880000042000dd
:102e1800c071880000402200a07288000000eb000a
:102e280051052000b1468800a10a2000b14688005b
:102e380000688800816c8000f00f2c0080806000a2
:102e48000030200001007000806c8800a0c3b3002f
:102e580028edb70000c3b3002aedb700b16c8000bd
:102e6800f00f2c00008060000080a000b06c88008b
:102e78000080200051052000b1468800a10a2000ea
:102e8800b1468800006888000080fa00000006004b
:020000040000fa
:102e98000000fa0010002300307c8800a005200004
:102ea800407c88008c2fef0010042000507c8800a4
:102eb80010102000707c880060092000807c880049
:102ec80010042000907c8800b82fef00ba2fef0084
:102ed800be2fef00002def00a42fef00a62fef006c
:102ee800a82fef00aa2fef00ae2fef00b02fef00b2
:102ef800b22fef003200200080072000a109200037
:102f080053f8200080497800814978008249780088
:102f180012002000600420007105200043f8200002
:102f280080497800814978008249780000000000d3
:102f3800207c8000610060000000e000fcff3a0097
:102f480000000000217c800000022000008060005a
:102f58000000e000fbff32000080fa0000000600dd
:020000040000fa
:102f68001800fa000b000900001feb008e01b100e9
:102f7800a0cab300004f7800b1cbb3000e00e80040
:102f880001487800c1ccb3000e80e8000148780001
:102f9800b1c0b300640047000148780064004700ee
:102fa80090007800f00f200000806000800078001a
:102fb80001b0a000640047000108780066004700df
:102fc8009000780000f02f008080600066004700c5
:102fd8000108780011c0b3006f004700014878006d
:102fe8000000250001002000700147000089be0094
:102ff800e07f270051002000740147000089be00cf
:10300800f1002000e050210073000700810120003a
:103018000e007800eb0007000000eb000080fa00cb
:04302800000006009e
:020000040000fa
:10302c001200fa00f10020000e0078006900070081
:10303c000000eb00e5fa07000004a2000004e00029
:10304c0004003200c1cfb3006f0047000148780084
:10305c000300370011c0b3006f004700014878002f
:10306c006400470090007800f00f20008080600022
:10307c006400470001087800660047009000780063
:10308c0000f02f0080806000660047000108780087
:10309c00010120000e007800c90007006f004700f6
:1030ac0010407800e14f500002003a000000eb00a5
:1030bc0001003700300020000080fa0000000600fc
:020000040000fa
:1030cc000000fa00000024000100200099fb07001a
:1030dc00108088002180880000d0bf000004a2006e
:1030ec000004e00017003200010107000004e000ba
:1030fc000300320010c0b30000f0b700110037001d
:10310c0008d0bf000004e000030032000000eb0018
:10311c00aefa070001f0b70001d0bf000004a20016
:10312c000004e0000200320010c0b30000f0b70051
:10313c0000d0bf000004a2000004e0000100320037
:10314c00ec01070066fe07000080fa000000060094
:020000040000fa
:10315c000000fa00881f780006d0bf000004a2000f
:10316c000004e0000f003200221020008000eb0071
:10317c00c04021004ef6070010c0b30006f0b700a7
:10318c000900370068a8800066010700c1402100d3
:10319c0081004400804878000800e80060a888009e
:1031ac000100370000000000bf0107000004e00030
:1031bc000400320061a88000f00f2000808f5000c6
:1031cc00f0ff360060a880004f0478000080fa0001
:0431dc0000000600e9
:020000040000fa
:1031e0000600fa000e81e80000097800640047003c
:1031f00001087800d9ff0700000f7800640047003d
:10320000100078009e0f500002003100640047005b
:10321000100f78001e017800c14021000e80e800e8
:1032200010007800d8f50700001020009e00500024
:10323000c04021001e00400001017800800078009d
:10324000c0402100d7f5070060a880001e00500094
:1032500060a888001e0078000080fa0000000600c8
:020000040000fa
:103260000c140000020100008000000006100000a5
:1032700002000000800000000010000006000000b6
:103280008000000008100000020000008200000022
:10329000010000000e150000000100008000000089
:1032a0000c10000000040000800000002e1600003a
:1032b0000400000082000000ffffff00ff0000008c
:1032c0000e16000020000000800000000a10000020
:1032d0000200000082000000ffff0000000000006c
:020000040000fa
:1032e0000600fa00008fbe00640047000208780064
:1032f00064004700100078001e01be0016000700a1
:1033000042002000030020003e004100ae80490042
:103310006401470012017800640241000001be0010
:10332000040078000c000700820020000300200049
:103330003e004100ae804900640147001201780060
:10334000680241000001be0004007800020007008e
:083350000080fa0000000600f5
:020000040000fa
:103358000600fa00889fbe00000f78000e80e80083
:103368000288be000e80e8001000be00f9fa0700cf
:103378008000eb001e0178000089be001e00780066
:103388001004be000e80e8001000be00620040007d
:10339800e0804800effa07008000eb00c000dd0085
:1033a8000000200008004000898048001e017800c5
:1033b8000089be000000eb004f04be000080fa0048
:0433c80000000600fb
:020000040000fa
:1033cc000400fa00000f78000e80e8000108780075
:1033dc000c003700c30007000004e00009003200b5
:1033ec001e007800104078001e0fe800190107003d
:1033fc000e80e800100078008000e9000e80e800e4
:10340c00010878000e80e800100078000000e00051
:10341c00f0ff3a0000000000f70007000004a200d3
:10342c000004e000fcff3a000080fa0000000600f7
:020000040000fa
:10343c000000fa0000082000001388006222ef0050
:10344c006422ef00200220003013880070922000cc
:10345c00401388006a22ef007422ef007622ef00fe
:10346c007822ef007a22ef007c22ef007e22ef0020
:10347c008022ef008222ef008422ef0061e2a8009c
:10348c0060a2a8006082a8000080fa00000006007c
:020000040000fa
:10349c000000fa0000082000c01188003a22ef005a
:1034ac003c22ef0020022000f011880070922000d6
:1034bc00001288004222ef004c22ef004e22ef0057
:1034cc005022ef005222ef005422ef005622ef0060
:1034dc005822ef005a22ef005c22ef0039e2a800dc
:1034ec0038a2a8003882a8000080fa00000006006c
:020000040000fa
:1034fc000000fa0050052000a10a20006bfa07001a
:10350c00000024000100200097fa07006cfa070065
:10351c0012808000238080003023220011012000c3
:10352c0000006900818069000080700000f0a70035
:10353c000000ea000000e9004f00de0000407800c7
:08354c000080fa0000000600f7
:020000040000fa
:103554000a00fa00e400470080087800660047008b
:103564000288be00803184009131840066014700e6
:103574001201be00001f510001975900640047006a
:1035840010007800c200dd000063280000804000c5
:103594001000be003e014000ae8148000200be00a3
:0835a4000080fa00000006009f
:020000040000fa
:1035ac000800fa00008fbe00640047000288be00cd
:1035bc001e00be00240007000004e00009003200d9
:1035cc00640047001000be0062005000e08058000c
:1035dc001d0007000004e000020032001000200073
:1035ec00010037000000eb00004078000080fa007a
:0435fc0000000600c5
:020000040000fa
:103600001200fa00f000470080087800f100200066
:10361000e0502100f2fe0700f2002000e1502100fe
:103620000e007800d8f40700700047001000780002
:10363000804078006f0047000148780001012000b9
:103640000e00780061ff0700300020000080fa00c3
:043650000000060070
:020000040000fa
:103654000400fa00008fbe00f0ff240001002000e7
:103664001e01be00800f5100818f590008003600f2
:10367400e07f2700510020001e01be00800f510092
:10368400818f590002003e00100020000100370025
:103694000000eb00004078000080fa000000060003
:020000040000fa
:1036a4001000fa0007000900001feb000e01b10032
:1036b40091c0b300640047000148780011c0b30012
:1036c4006f00470001487800f1002000e05021001d
:1036d400c2fe0700010120000e0078003aff070037
:0c36e400a80007000080fa0000000600ab
:020000040000fa
:1036f0000000fa0030138000700060000000e0005d
:1037000007003a00011380000002200000806000e2
:103710000000e0000200320010002000010037002d
:103720000000eb00004078000080fa000000060076
:020000040000fa
:103730000000fa000000000030138000620060000a
:103740000000e000fcff3a002013800062006000ef
:103750000000e000010032006422a9006013800034
:0c376000004078000080fa000000060025
:020000040000fa
:10376c000000fa0001448000f08f2f000080600000
:10377c000080a0000044880001448000f0ff280075
:10378c000080600000c0a000004488000080fa00a7
:04379c000000060023
:020000040000fa
:1037a0000000fa007f0007007bfd0700efff070025
:1037b000b9fd070021ff07003400070037ff0700ad
:1037c0005d00070000022000440007000080fa00ae
:0437d00000000600ef
:020000040000fa
:1037d4000200fa00000f780060a880009e0f5000dd
:1037e40002003e0020c4b30003003700c0402100a3
:1037f4001e004000104078000080fa00000006001f
:020000040000fa
:103804000000fa002013800077800a000000000006
:103814000080fb0000f0a7000000ea000000ea00be
:103824004f00de00004078000080fa00000006002f
:020000040000fa
:103834000400fa00008fbe001e00780061006000e2
:1038440000f0a7000000ea000000ea004f00de00dc
:0c385400004078000080fa000000060030
:020000040000fa
:103860000200fa00004f78000000000030138000d2
:10387000700060000000e000fcff3a001e80fb00ca
:0c388000801388000080fa0000000600a1
:020000040000fa
:10388c000000fa00d221ef0000082800d00f8800b9
:10389c001048a9003048a8001068a9003068a8009a
:0838ac000080fa000000060094
:020000040000fa
:1038b4000000fa00301380006200600000f0a700ee
:1038c4000000ea000000e9004f00de00004078003c
:0838d4000080fa00000006006c
:020000040000fa
:1038dc000200fa00000f780021028000200f200067
:1038ec00008060001e007000200288000080fa003a
:0438fc0000000600c2
:020000040000fa
:103900000200fa00c0002500000f78001e007800b9
:0c391000000001000080fa00000006002a
:020000040000fa
:10391c000000fa00e060210080077800606221005e
:0c392c00000188000080fa000000060086
:020000040000fa
:103938000000fa00c3e8a800000000000000000032
:083948000080fa0000000600f7
:020000040000fa
:103950000200fa00000f78009e0078005180880075
:04396000ffff37002e
:020000040000fa
:103964000000fa008dff07000a000700d6fd0700db
:04397400feff37001b
:020000040000fa
:103978000000fa00008020000080fa000000060025
:020000040000fa
:103988000000fa000000fe000080fa0000000600b7
:020000040000fa
:0c3998000000fa000080fa0000000600a9
:020000040000fa
:0c39a4000000fa000080fa00000006009d
:020000040000fa
:0c39b0000000fa000080fa000000060091
:020000040000fa
:0c39bc000000fa000080fa000000060085
:020000040000fa
:0439c800ffffff00fe
:020000040000fa
:02000004000af0
:04fe0000ffffff0001
:020000040000fa
:02000004000af0
:04fe2000ffffff00e1
:020000040000fa
:02000004000af0
:04fe300078ffff0058
:020000040000fa
:02000004000af0
:04fe38007affff004e
:020000040000fa
:02000004000af0
:04fe40006003ff005c
:020000040000fa
:02000004000af0
:04fe4800ffffff00b9
:020000040000fa
:02000004000af0
:04fe5000dfffff00d1
:020000040000fa
:02000004000af0
:04fe58000000ff00a7
:020000040000fa
:02000004000af0
:04fe60000000ff009f
:020000040000fa
:02000004000af0
:04fe68000000ff0097
:020000040000fa
:02000004000af0
:04fe70000000ff008f
:020000040000fa
:02000004000af0
:04fe7800ffffff0089
:020000040000fa
:02000004000af0
:04fe8000fffcff0084
:020000040000fa
:02000004000af0
:04fe8800ffffff0079
:020000040000fa
:02000004000af0
:04fe900000f0ff007f
:020000040000fa
:02000004000af0
:04fe9800fbffff006d
:020000040000fa
:02000004000af0
:04fea000ffffff0061
:020000040000fa
:02000004000af0
:04fea800fcffff005c
:020000040000fa
:02000004000af0
:04feb000ffffff0051
:020000040000fa
:02000004000af0
:04fec000ffffff0041
:020000040000fa
:02000004000af0
:04fed000c3ffff006d
:020000040000fa
:02000004000af0
:04fee000ffffff0021
:020000040000fa
:02000004000af0
:04fef000ffffff0011
:020000040000fa
:02000004000af0
:04ff0000f8ffff0007
:020000040000fa
:02000004000af0
:04ff08007bffff007c
:020000040000fa
:02000004000af0
:04ff1000f453ff00a7
:020000040000fa
:02000004000af0
:04ff1800ffffff00e8
:020000040000fa
:02000004000af0
:04ff2000ffffff00e0
:020000040000fa
:02000004000af0
:04ff2800ffffff00d8
:020000040000fa
:02000004000af0
:04ff3000ffffff00d0
:020000040000fa
:02000004000af0
:04ff38000000ff00c6
:020000040000fa
:02000004000af0
:04ff40000000ff00be
:020000040000fa
:02000004000af0
:04ff48000000ff00b6
:020000040000fa
:02000004000af0
:04ff50000000ff00ae
:020000040000fa
:02000004000af0
:04ff5800ffffff00a8
:020000040000fa
:02000004000af0
:04fff800ffffff0008
:020000040000fa
:020000040100f9
:04300000ffffff00cf
:00000001FF
