:1000000034540400000000000452000008520000B4
:100010000C52000010520000145200000052000068
:1000200018520000005200001C5200002052000034
:1000300024520000285200002C5200000052000000
:100040003052000034520000385200003C52000090
:100050004052000044520000485200004C52000040
:100060005052000054520000585200005C520000F0
:100070006052000064520000685200006C520000A0
:1000800070520000745200007852000000520000CC
:100090007C52000080520000845200008852000010
:1000A0008C5200000052000000520000005200007C
:1000B0009052000094520000985200009C520000A0
:1000C000A052000000520000A4520000A8520000FC
:1000D00000520000AC520000B0520000B4520000C8
:1000E000B8520000BC520000C0520000C4520000D0
:1000F000C8520000CC520000005200000052000024
:1001000000520000005200000052000000520000A7
:10011000005200000052000000520000D0520000C7
:10012000D4520000D8520000DC520000E05200001F
:1001300000520000E4520000E8520000EC520000BF
:10014000F052000000520000005200000052000077
:1001500000520000F452000000520000F85200006B
:10016000005200000052000000520000FC5200004B
:100170000053000004530000085300000C5300001B
:100180001053000014530000185300001C530000CB
:100190002053000024530000285300002C5300007B
:1001A0003053000034530000385300003C5300002B
:1001B0004053000044530000485300004C530000DB
:1001C0005053000054530000585300005C5300008B
:1001D0006053000064530000685300006C5300003B
:1001E00070530000745300000052000000520000E1
:1001F00000520000785300007C5300008053000040
:1002000084530000885300008C530000905300007A
:1002100094530000985300009C530000A05300002A
:10022000A4530000A853000000520000AC5300008B
:10023000B0530000B4530000B8530000BC5300009A
:10024000C0530000C4530000C8530000CC5300004A
:10025000D0530000D4530000D8530000DC530000FA
:100260000052000000520000005200000052000046
:10027000E05300000052000000520000E453000070
:10028000E853000000520000EC530000F05300005F
:10029000005200000052000000520000F453000021
:1002A0000052000000520000005200000052000006
:1002B00000520000005200000052000000520000F6
:1002C0000052000000520000F8530000FC530000F0
:1002D0000054000004540000085400000C540000B6
:1002E0001054000014540000185400001C54000066
:1002F0002054000024540000285400000052000044
:1003000000520000005200000052000000520000A5
:100310000052000000520000005200002C54000067
:100320003054000000520000005200000052000053
:100330000052000000520000005200000052000075
:100340000052000000520000005200000052000065
:100350000052000000520000005200000052000055
:100360000052000000520000005200000052000045
:100370000052000000520000005200000052000035
:100380000052000000520000005200000052000025
:100390000052000000520000005200000052000015
:1003A0000052000000520000005200000052000005
:1003B00000520000005200000052000000520000F5
:1003C00000520000005200000052000000520000E5
:1003D00000520000005200000052000000520000D5
:1003E00000520000005200000052000000520000C5
:1003F00000520000005200000052000000520000B5
:10A00000574000009DCB0000005000000000000001
:10A01000FE7700000500000034540400000000003A
:10A02000000000000200000000000000020000002C
:10A03000020000000400000000000000000000001A
:10A040000000000000010000020300000405000001
:10A0500006070000080900000A0B00000C0D0000B4
:10A060000E0F000010110000121300001415000064
:10A0700016170000181900001A1B00001C1D000014
:10A080001E1F000000010000020300000405000084
:10A0900006070000080900000A0B00000C0D000074
:10A0A0000E0F000010110000121300001415000024
:10A0B00016170000181900001A1B00001C1D0000D4
:10A0C0001E1F000044610000746100002047000072
:10A0D00065740000203000003A2000002564000074
:10A0E000200A00000D0000004461000074610000BF
:10A0F0002047000065740000203100003A20000075
:10A1000025640000200A00000D00000044610000EA
:10A1100074610000204700006574000020320000D8
:10A120003A20000025640000200A00000D00000015
:10A130004144000043200000313A00002025000087
:10A140007820000025750000200A00000D000000A6
:10A150004461000074610000204900004E200000AE
:10A16000303A000020250000642000000A0D0000A5
:10A17000004400006174000061200000494E0000AE
:10A18000203100003A20000025640000200A000071
:10A190000D000000446100007461000020490000CF
:10A1A0004E200000323A000020250000642000000C
:10A1B0000A0D00000041000044430000203200006E
:10A1C0003A200000257800002025000075200000BE
:10A1D0000A0D000000000000486500006C6C0000E3
:10A1E0006F20000061200000536F00006E0000002F
:10A1F0000000FA0000082000C01188003A22EF0099
:10A200003C22EF0020022000F01188007092200014
:10A21000001288004222EF004C22EF004E22EF0095
:10A220005022EF005222EF005422EF005622EF009E
:10A230005822EF005A22EF005C22EF0039E2A8001A
:10A2400038A2A8003882A8000080FA0000000600AA
:10A250000000FA0000000000F011800062006000C1
:10A260000000E000FCFF3A00E011800062006000A6
:10A270000000E000010032003C22A9002012800012
:10A28000004078000080FA00000006000200FA009A
:10A29000004F780000000000F011800070006000A6
:10A2A0000000E000FCFF3A001E80FB004012880026
:10A2B0000080FA00000006000000FA00F0118000A3
:10A2C0006200600000F0A7000000EA000000E90062
:10A2D0004F00DE00004078000080FA000000060019
:10A2E0000000FA00F0118000700060000000E00043
:10A2F00007003A00C11180000002200000806000C9
:10A300000000E000020032001000200001003700D1
:10A310000000EB00004078000080FA00000006001A
:10A320000000FA00E011800077800A0000000000C1
:10A330000080FB0000F0A7000000EA000000EA0037
:10A340004F00DE00004078000080FA0000000600A8
:10A350000400FA00F01180008000EB00008FBE00C6
:10A360001E00BE00C001DD0002002000E0118000E0
:10A370008000EB0000007100818071000080FA0015
:10A38000000006000000FA0039E2A80038A2A80088
:10A390003882A8000080FA00000006000000FA00E1
:10A3A00039E2A90038A2A9003882A9000080FA0089
:10A3B00000000600F03FB1000180B100060035004A
:10A3C000EE03090000000000403FB1000180B10031
:10A3D000FBFF3D001000B000203FB0000200350040
:10A3E000008009000000000000000600FFFF3700A9
:04A3F000FFFFFF006C
:10A400002058040000000000DE5504000000000099
:10A410002056040000000000605604000000000008
:10A42000FE5504000000000040560400000000003B
:10A4300080560400000000000052040000000000EC
:10A440000052040000000000005204000000000060
:10A450000052040000000000005204000000000050
:10A460000052040000000000005204000000000040
:10A470000052040000000000005204000000000030
:10A480000052040000000000005204000000000020
:10A490000052040000000000005204000000000010
:10A4A0000052040000000000005204000000000000
:10A4B00000520400000000000052040000000000F0
:10A4C00000520400000000000052040000000000E0
:10A4D00000520400000000000052040000000000D0
:10A4E00000520400000000000052040000000000C0
:10A4F00006570400000000000052040000000000A5
:10A5000094570400000000003457040000000000CD
:10A51000005204000000000000520400000000008F
:10A52000005204000000000000520400000000007F
:10A53000005204000000000000520400000000006F
:10A54000005204000000000000520400000000005F
:10A55000005204000000000000520400000000004F
:10A56000005204000000000000520400000000003F
:10A57000005204000000000000520400000000002F
:10A58000005204000000000000520400000000001F
:10A590000258040000000000005204000000000007
:10A5A00000520400000000000052040000000000FF
:10A5B00000520400000000000052040000000000EF
:10A5C00000520400000000000052040000000000DF
:10A5D00000520400000000000052040000000000CF
:10A5E00000520400000000000052040000000000BF
:10A5F00000520400000000000052040000000000AF
:10A60000005204000000000000520400000000009E
:10A61000005204000000000000520400000000008E
:10A62000005204000000000000520400000000007E
:10A63000005204000000000000520400000000006E
:10A64000005204000000000000520400000000005E
:10A65000005204000000000000520400000000004E
:10A66000005204000000000000520400000000003E
:10A67000005204000000000000520400000000002E
:10A68000005204000000000000520400000000001E
:10A69000005204000000000000520400000000000E
:10A6A00000520400000000000052040000000000FE
:10A6B00000520400000000000052040000000000EE
:10A6C00000520400000000000052040000000000DE
:10A6D00000520400000000000052040000000000CE
:10A6E00000520400000000000052040000000000BE
:10A6F00000520400000000000052040000000000AE
:10A70000005204000000000000520400000000009D
:10A71000005204000000000000520400000000008D
:10A72000005204000000000000520400000000007D
:10A73000005204000000000000520400000000006D
:10A74000005204000000000000520400000000005D
:10A75000005204000000000000520400000000004D
:10A76000CA56040000000000E85604000000000083
:10A77000005204000000000000520400000000002D
:10A78000005204000000000000520400000000001D
:10A79000005204000000000000520400000000000D
:10A7A00000520400000000000052040000000000FD
:10A7B00000520400000000000052040000000000ED
:10A7C00000520400000000000052040000000000DD
:10A7D00000520400000000000052040000000000CD
:10A7E00000520400000000000052040000000000BD
:10A7F00000520400000000000052040000000000AD
:10A80000005204000000000000520400000000009C
:10A81000005204000000000000520400000000008C
:10A82000005204000000000000520400000000007C
:10A83000005204000000000000520400000000006C
:10A84000005204000000000000520400000000005C
:10A85000005204000000000000520400000000004C
:10A860001858040000000000CF9021000E072700B8
:10A870000E018800000020000000E000020032000D
:10A880000001200020028800140007007702070062
:10A890000000E00003003A000067290001002000EA
:10A8A000020037000000200001002000810F70002E
:10A8B0004220AE000F000700000020000000E00072
:10A8C0004220AE00000002000000000022A10200B1
:10A8D000000000000040DA000000FE00600D2000D3
:10A8E0000000E000020032000020200090018800FB
:10A8F00000000600A1028800800478000000EB0040
:10A900001F003700E284440054A0B4009905BA0047
:10A91000E284440054A0B4009906BA00E2844400E2
:10A9200054A0B4000006EB00476FDE00FD07B20044
:10A93000AE018800636CE10003003A000AD8010010
:10A940000000EB000E003700606CE10008003A00E8
:10A95000004DEB000A05E800020039003420EC004D
:10A960000AF0A0008B05E900F9FF3E000400370063
:10A970006168E100010032000086EB000B00070077
:10A9800019C7BA001905BA000E04E00003003A0026
:10A990000A00E000DBFF3A0000000600FE07B200FC
:10A9A000AE0288008A047800F5FF37000CD0A300BF
:10A9B000E20F4D001C003B0089027800354DBA00C3
:10A9C0000A05E800020039003420EC000AF0A0007B
:10A9D0008B05E9000F003200254DBA000A05E8009A
:10A9E000020039003420EC000AF0A0008B05E900D9
:10A9F000080032000C00E0000600320015CDBA005D
:10AA00000A05E800020039003420EC000AF0A0003A
:10AA10008B05E9008984E80054A0B4000B00E00035
:10AA2000E2FF3A00000006009902BA00055D7800D6
:10AA30008B05E900F7FF3200C82ADE00055D7800CB
:10AA40008B05E900F3FF32000C00E000F1FF32005B
:10AA500019DDBA00EEFF37006100E10001003200AD
:10AA6000100005005400F80050102000A0028800DB
:10AA700000F927001000BA005400F9000700260072
:10AA800000F0A6008703D1000703780001C4FE0090
:10AA90000003EB000120200091018800811F2D00A0
:10AAA000111303008703E900FDFF3A0000F0A7003F
:10AAB0000000050000F0A00080C4FE0086037800BE
:10AAC000F3FF370004082000010037000002EB000C
:10AAD0006100E10001003200100005003200F800C2
:10AAE0003400F80081027800930188003200BE0033
:10AAF0000100E0000C0032000470A70000F0A0008C
:10AB000032037800C733DE00848343004220AF0065
:10AB10008703E800A7018800F607B2007F30E10054
:10AB200004003200200020003400F9003200F90057
:10AB3000000006008100E9000500E00003003A0083
:10AB40000180090032100300E8FF3700018009008E
:10AB500032900300D561AE00E4FF370030002000E2
:10AB6000F1FF370050052000B00E8800A00A200039
:10AB7000B00E8800D3E1A8000000060050052000B8
:10AB8000B00E8800A00A2000B00E8800D3E1A90012
:10AB9000000006004C930400000000006A930400CB
:10ABA00000000000245F040000000000C85E0400F4
:10ABB00000000000625E0400000000003600F800A3
:10ABC000809FBE00829FBE00849FBE00869FBE0005
:10ABD0000000FA00C028A9000000EB00832807004D
:10ABE0000080FA004F03BE004F02BE004F01BE00BE
:10ABF0004F00BE003600F900004006003600F800A5
:10AC0000809FBE00829FBE00849FBE00869FBE00C4
:10AC10000000FA007A280700C048A90010002000B0
:10AC2000722807000080FA004F03BE004F02BE00EA
:10AC30004F01BE004F00BE003600F9000040060084
:10AC40003600F800809FBE00829FBE00849FBE0039
:10AC5000869FBE000000FA00C068A9002000200006
:10AC6000622807000080FA004F03BE004F02BE00BA
:10AC70004F01BE004F00BE003600F9000040060044
:10AC80003600F800809FBE00829FBE00849FBE00F9
:10AC9000869FBE000000FA00C088A9003000200096
:10ACA000522807000080FA004F03BE004F02BE008A
:10ACB0004F01BE004F00BE003600F9000040060004
:10ACC0003600F800809FBE00829FBE00849FBE00B9
:10ACD000869FBE000000FA00C608A9007000200090
:10ACE000422807000080FA004F03BE004F02BE005A
:10ACF0004F01BE004F00BE003600F90000400600C4
:10AD00003600F800809FBE00829FBE00849FBE0078
:10AD1000869FBE000000FA0021468000001020003F
:10AD2000008060000000E00003003200C508A900B8
:10AD3000C00020002D2807002146800000022000CE
:10AD4000008060000000E00003003200C4A8A900F9
:10AD50009000200025280700204680007000600039
:10AD60000000E00003003200C488A900A000200019
:10AD70001E28070020468000610060000000E000FF
:10AD800003003200C408A900B00020001728070003
:10AD9000FFFF37003600F800809FBE00829FBE0094
:10ADA000849FBE00869FBE000000FA008D2207002F
:10ADB0001048A9000080FA004F03BE004F02BE00F9
:10ADC0004F01BE004F00BE003600F90000400600F3
:10ADD0003600F800809FBE00829FBE00849FBE00A8
:10ADE000869FBE000000FA00AE2207001068A9008E
:10ADF0000080FA004F03BE004F02BE004F01BE00AC
:10AE00004F00BE003600F900004006003600F80092
:10AE1000809FBE00829FBE00849FBE00869FBE00B2
:10AE20000000FA0011408000001020000080600047
:10AE30000000E000050032006090210011C0B30066
:10AE400001487800452607000308A9000080FA00A1
:10AE50004F03BE004F02BE004F01BE004F00BE00B8
:10AE60003600F900004006003600F800809FBE0062
:10AE7000829FBE00849FBE00869FBE000000FA0035
:10AE800000C780000000E0000200320000C7800020
:10AE90000000010051C6800040C68000808F500035
:10AEA00002003A002388A900180037000388A9008F
:10AEB0001000370050C68000904078008180FB0071
:10AEC000811388000000E80050C6880051C6800049
:10AED000608D2100808F500002003A00D08C21004C
:10AEE00050C6880051C6800040C68000808F500048
:10AEF0000500320030138000700060000000E000A8
:10AF0000ECFF320001003700000000000080FA0072
:10AF10004F03BE004F02BE004F01BE004F00BE00F7
:10AF20003600F900004006003600F800809FBE00A1
:10AF3000829FBE00849FBE00869FBE000000FA0074
:10AF400010C780000000E0000200320010C780003F
:10AF5000000001000368A9001F00370021C680001F
:10AF600060138000004078008048780021C680008F
:10AF7000E08D2100808F50000900320020C6800043
:10AF80000000E80031C68000810F5000040032004C
:10AF900020C680000000E80020C688000E003700B0
:10AFA00021C68000E08D2100808F500007003A000C
:10AFB00031C68000608D2100808F50000300320078
:10AFC000608D210020C6880003003700C08C21005E
:10AFD00011C0B300014878003013800062006000A7
:10AFE0000000E000DDFF32000080FA004F03BE00E9
:10AFF0004F02BE004F01BE004F00BE003600F900F8
:10B0000000400600801F78000000FA002013800036
:10B01000620060000000E000010032006422A9002C
:10B020000648A9000080FA004F00780000400600A2
:10B030000000FA0017C8A9000080FA0000400600CE
:10B040000040DA000000FE00EC8747008E1F780009
:10B050006C87570044002000041F7800000F780020
:10B060006C87570002AFBE00E1BF9F006C805700A5
:10B07000970607001E00BE004F077800CF00B10002
:10B0800000000600EC8747008E1F780011002000AA
:10B09000A1BF9F006C875700002F78006C8057007D
:10B0A0008D0607001E0078004F077800CF00B10022
:10B0B000000006008102D0008502E9000118780036
:10B0C0000218780005184100031878000418780069
:10B0D000051842000408780000000600889FBE00A2
:10B0E0008A9FBE008C1F78004400F800070F2000E4
:10B0F000270288003305900008F02F000A40E10085
:10B100000200320000002000380037004600F8003E
:10B110004800F8004A00F8004C00F8004E00F80023
:10B120008A0A2C003A028800230490005802880002
:10B130001304900048028800530590007A028800AA
:10B14000430590006A028800811F78006305900023
:10B150000406780003029000620252000000E90039
:10B16000850378000080080018000000320D780088
:10B170004618C300048009004618C4001201C40028
:10B180003100CD003C80CA0000B0CB000580CD006E
:10B190001301C5000500CD008405E900880478008E
:10B1A0000609C3000B800800020000001900CA0055
:10B1B0000609C4003900CD001900CA000209C40004
:10B1C0003900CD001900CA001201C4003900CD00B9
:10B1D000EA0198004F0078004E00F9004C00F90099
:10B1E0004A00F9004800F9004600F9004400F9005F
:10B1F0004F0678004F05BE004F04BE000000060059
:10B200000800FA008E81E800800978006400470099
:10B2100001087800660047000208780066004700D1
:10B22000100F78000A003700640047001000780013
:10B2300010407800E4004700910078000101E80028
:10B24000E40047008208780010FC07001E0FE900A8
:10B250001E0078000000E000F3FF3A00660047009F
:10B26000100078000080FA000000060000000500D1
:10B270008001780002003700B15978000201E9002E
:10B280000200E000FCFF3A00000006000000FA00A7
:10B29000CFB897006881570010C480001000780074
:10B2A0002D0007000080FA000000060000003700B3
:10B2B000EA874700889FBE008A9FBE008E1F7800E5
:10B2C00000047800030078007287570084E22600AB
:10B2D00055C72600049FBE00C3962200030F7800C6
:10B2E0006C875700004FEB0011059000A1049000FF
:10B2F000910578000200E0000200320002077800A9
:10B3000001003700728757000000E00002003A0099
:10B310000E007800720207000A00E000030035000A
:10B320008A0F5000010036000A0078000B027800F6
:10B3300089017800000178008E007800080078000C
:10B34000270007004F0778004F05BE004F04BE00DE
:10B35000AF00B100000006000200FA00881F78006C
:10B3600000047800E2BF9F00648157000800780065
:10B37000D1010700980090000148A30001003200AD
:10B380000080EB004F0478000080FA000000060007
:10B39000889FBE008A1F78008004780049009000D2
:10B3A00002047800800F5400010036000004780089
:10B3B000080178006A8544001A007800ACFF070095
:10B3C0001A004400000D7800E8844400990C140031
:10B3D0000048EB004F0578004F04BE000000060057
:10B3E000F2874700889FBE008A9FBE008C9FBE00E8
:10B3F0008E1F780080047800010578000204780030
:10B40000830578006107620002003A008B0F540048
:10B4100008003900080178008A00780009007800E7
:10B420005D0207008B0F5400020039008805780088
:10B430001E003700088655000C017800F00F5600FA
:10B440000100360002012000010220007E8057002A
:10B45000B90107008C0678000500370002012000C2
:10B46000FE805700090078004B020700F086560066
:10B47000EF8F5600F9FF3E004461DE0000FF2F0011
:10B480008091B9000C014100FE805700090078004E
:10B49000410207000E00E00004003A0008017800B5
:10B4A0008A007800090078003B0207000B00780052
:10B4B0004F0778004F06BE004F05BE004F04BE0088
:10B4C0002F01B1000000060000000500000005008B
:10B4D00000000500000178000040EB008080FB00C8
:10B4E00081804000A38E21008181410013427800B9
:10B4F0000404E00004003A00B08E21008100400006
:10B50000114078000000060092017800934F52002D
:10B5100005003A00B08E2100810040001140780003
:10B520000309E800010037000040E800EA4F50003E
:10B53000EAFF360000000600F6874700889FBE003D
:10B540008A9FBE008C9FBE008E1F7800800478000A
:10B550000104780083057800040678000000EB0001
:10B56000C0B79F008080EB00D1B79F00E0B79F007D
:10B57000F2B79F000008200080BF9F00980078006D
:10B58000010078000005EB00010037000A05E80023
:10B59000304178000204E0000300320053C2B300DF
:10B5A000834F5100F9FF3A000A00E0000400320026
:10B5B0000A01780009007800F7010700180C45001F
:10B5C0001807780050C2B3009E4F100033013A00B4
:10B5D0000E07E8000E0C780010003700CFB097007F
:10B5E0000100A0000B003700CFB097000110A000B1
:10B5F00008003700CFB097000120A00005003700F9
:10B60000CFB097000130A00002003700CFB0970004
:10B610000140A000C1B79F00000CE80018007800AE
:10B6200090407800B2C2B30082CF5000F1FF3200E8
:10B6300007003C0002C2B30082CF5000F0FF32008E
:10B6400032C2B30082CF500007003A00EFFF37004C
:10B65000D2C2B30082CF5000E0FF320002C3B30079
:10B6600082CF5000E0FF3200A2C2B30082CF500070
:10B670000D003A00000CE8001C80E900000E780084
:10B6800010007800E0B79F000000E0000F003D00D0
:10B69000CFB097000100A200C1B79F000000EA00F0
:10B6A000E0B79F0009003700E5030700E0B79F00FF
:10B6B00001003700000CE800180078009000FB0043
:10B6C0000103B100E98F5000FAFF36004FB0970038
:10B6D0000008A300020032000010A100C0B79F00C4
:10B6E00018007800E1C2B30090CF100016003A00B5
:10B6F0008000EB00D1B79F000000E800000C78004C
:10B70000A1C2B30090CF100006003A00000CE80080
:10B710001C80E900000E780010007800D0B79F0070
:10B7200009003700C6030700D0B79F0001003700AB
:10B73000000CE800180078009000FB000103B10045
:10B74000E98F5000FAFF36000800780061FF07001B
:10B7500080467800180078001000FB00DE03070028
:10B7600091062000810F50003800320012003C008A
:10B7700041062000810F5000340032000A003C00D6
:10B7800011062000810F50002000320031062000F9
:10B79000810F50009A00320051022000810F5000AA
:10B7A000AE003A00A700370071062000810F50005C
:10B7B000AA003C008200370001072000810F5000E2
:10B7C0005C00320007003C00E1062000810F5000C1
:10B7D00074003200F1062000810F50009F003A00F3
:10B7E0003900370051072000810F50002700320038
:10B7F00081072000810F50004200320031072000F5
:10B80000810F500095003A00850037008D80FB00C5
:10B810000C01780000FE2F000F004000B503070068
:10B820000000E0009C00320018007800000CE800E6
:10B830009041780002FE2F000F014100F880570070
:10B840000900780021FF07000E0037008D80FB0003
:10B850008C0178001200200000FE2F000F00400035
:10B86000C30307000000E0008B003200180CE80062
:10B8700002FE2F000F014100F880570009007800F8
:10B88000B001070000054500840037008D80FB00F3
:10B890008C0178000001EB0000FE2F000F0040003B
:10B8A000B30307000000E0007B003200180CE80042
:10B8B00002FE2F000F014100F880570009007800B8
:10B8C00083020700EFFF37008D80FB008C017800BA
:10B8D0000001EB0000FE2F000F004000A403070052
:10B8E0000000E0006C003200180CE80002FE2F009F
:10B8F0000F014100F880570009007800EB010700B4
:10B90000E0FF37008D80FB008C0178000001EB0028
:10B9100000FE2F000F004000950307000000E0002C
:10B920005D00320018007800000CE80090417800BB
:10B93000160037008C0178000001EB00010F200099
:10B9400000FE2F000F004000890307000000E00008
:10B9500051003200180CE8000FB097009FB097001C
:10B960002FB19700BFB19700E00F5000E08F580053
:10B97000E00F5900E08F590003003A008001EB000E
:10B98000428E21004000370083C7B30002FE2F0023
:10B990000F014100F8805700090078007502070088
:10B9A000B8FF37000B0145008D80FB008C0178004B
:10B9B00000FE2F000F004000C603070036003700CE
:10B9C0008D80FB000C01780000FE2F000F0040006E
:10B9D000480307000000E0002F0032001800780044
:10B9E000000CE8009041780002FE2F000F0141009A
:10B9F000F880570009007800B4FE0700A1FF370067
:10BA000000C8B30080CF560023003A00180CE800AD
:10BA10001C80E900000E7800104078000D0037000F
:10BA200000C8B30080CF56001B003A00180CE80095
:10BA30001C80E900000E78008001EB001001780006
:10BA40001100370001C8B30081CF560012003A0040
:10BA5000180CE800E0DF9F000800370050C2B30078
:10BA6000E0DF9F000E0C78000000EB00C0B79F00E5
:10BA7000E0B79F008080EB00D1B79F00130020004B
:10BA8000E2FD2F000F014100F88057000900780007
:10BA900007FE07007BFF3700180CE8000A0078005B
:10BAA0004F0778004F06BE004F05BE004F04BE0092
:10BAB0006F01B100000006008200FA00889FBE00FE
:10BAC0008A1F78000005780082047800C13F9F003B
:10BAD0000004EB00100037000902780088017800AC
:10BAE000A2F72F000F01410081F72F008F80400047
:10BAF0000A00780090FE070008004000880F500000
:10BB000004003D00B004200050C888000084EB0011
:10BB100004003700000478004F3897001004E0005C
:10BB2000EDFF3A00080078004F0578004F04BE0092
:10BB30000080FA0000000600889FBE008A9FBE00B9
:10BB4000800478000200E0005A00320001407800D2
:10BB5000814C780082814400F1F99F00E20F51008E
:10BB60005400360091449800A1449800E1F99F00E8
:10BB7000D1F99F00E60F51004E003600B144980005
:10BB8000C1F99F00E80F51004A0036000905EA009C
:10BB9000630565000A8444000A055100C1FF2F00B7
:10BBA000010565000080FB008000EB001210200002
:10BBB00013102000C0030700008CBE000A014400DF
:10BBC00060B99F0071B99F00E80F55003900360039
:10BBD0002004980031049800400498005104980013
:10BBE00020B99F0031B99F0040B99F0051B99F0013
:10BBF000F80F55002F00360060049800710498007B
:10BC0000000C9800110C9800200C9800310C980042
:10BC1000400C9800510C980020B19F0031B19F005A
:10BC200040B19F0051B19F0060B19F0071B19F0072
:10BC300000B99F0011B99F006401640078014100C0
:10BC400002044400020555006011B8000203BE0062
:10BC50000002BE000403BE006022B80000007200B3
:10BC60008180720002017300838173000F0037002E
:10BC700008027800009ABE00029ABE00009ABE0038
:10BC80000292BE00000C9800110C9800220C980043
:10BC9000330C9800400C9800510C9800620C9800EE
:10BCA000730C98000A02B1000802B000FF0F5500A3
:10BCB000EFFF3E00090078004F05BE004F04BE00B4
:10BCC0000000060000000600808821000000060039
:10BCD000FDFF070030C4880020C488000000060073
:10BCE00080007800040037003104E00002003A00D0
:10BCF0000000510000000600010178000108A300C7
:10BD0000F9FF3A008101780031017800F4EF2F004B
:10BD1000020242000281EA000201620004082800D7
:10BD200004016100F7FF3200830078000101780010
:10BD30003104E000FDFF3A00000051000000060061
:10BD4000889FBE008A1F7800800478004900900018
:10BD500002047800800F54000100360000047800CF
:10BD6000080178006A8544001A00780040FD070049
:10BD70001A004400000D7800E8844400990C140077
:10BD80000048EB004F0578004F04BE00000006009D
:10BD9000100078001AFD3700900190000388A3007E
:10BDA00001003200E6FF37000348A30001003A001B
:10BDB000F7FF070000000600889FBE008A1F78007A
:10BDC00000047800010578000000EB000800E000A6
:10BDD0001A003200180090000058A3000C00320036
:10BDE000EA04440068009000990F10000800360033
:10BDF000B80990000001EB0082007800080078008C
:10BE0000030001000080EB001900E0000B0032008D
:10BE1000740044000008EB006C0044000008EB00D4
:10BE20006A0044000008EB000000EB000A00E0009C
:10BE3000020032001800780092FC07004F057800DD
:10BE40004F04BE0000000600889FBE008A1F7800D5
:10BE50000004BE000000EB000800E00029003200F2
:10BE6000180090000058A300120032006A05440038
:10BE7000680090009A0F100008003600B809900082
:10BE80000001EB0082007800080078000300010048
:10BE90000080EB001A00E0001A0032007400440039
:10BEA0000008EB006C0044000008EB006A0044004E
:10BEB0000008EB00780A900008109000800F5200F4
:10BEC000060031000002520011002000CFA2DE0067
:10BED000612BB900180078005BFC0700000220000D
:10BEE000080040000008EB007E0044000008EB0062
:10BEF0000000EB000900E0000200320018007800AA
:10BF000060FC07004F0578004F04BE0000000600EB
:10BF10000000FA00CFB897006881570010C4800075
:10BF2000100078000CFD07000080FA0000000600F9
:10BF3000040007005D000700E50007000D01070091
:10BF4000DBFC3700EC874700889FBE008A9FBE005D
:10BF50008C9FBE008E1F78000006780001047800D8
:10BF6000180790002805900098067800CDB79F002C
:10BF7000B80590003202BE002203BE000400BE00DD
:10BF80000601BE004F18DE006011B8008000EB0013
:10BF9000D0B79F00E1B79F00F2B79F0083BF9F001B
:10BFA000800478000900E000060032006000B8005C
:10BFB0006011B80004025000858258000603590041
:10BFC000878359000E00E000020035000D10A1002B
:10BFD000CDB79F000900E00005003A004FB0970080
:10BFE0000028A30002003A000038A300020032003B
:10BFF0008A00E900010037008A007800F8815700C4
:10C00000A2002000080078005F0007000900E0009F
:10C0100003003A00CFB097000128A30008003200C7
:10C020000000E90000814500B1C2B3000900E00052
:10C0300001003200D1C2B300014978000600370088
:10C040000138A300040032000000E90080804500B0
:10C0500002C2B30082487800480190000201E90062
:10C0600000015100808045004FB297008A0178009E
:10C070000C007800DAFC07009C0090000188A30007
:10C080000400320098009000810F500001003D0034
:10C09000010078004F0778004F06BE004F05BE0034
:10C0A0004F04BE00CF00B100000006000200FA00FD
:10C0B000889FBE008A9FBE000005780001047800BA
:10C0C0000200780018019000A80590009800780000
:10C0D000B1BF9F00B80490000200E00002003500EC
:10C0E0000110A100B1BF9F00EA815700820020002B
:10C0F0008B0078003002BE002003BE0008007800EC
:10C10000210007003FB99700F000610004003200F1
:10C110000000E9008080440002C3B3008248780038
:10C120003FB99700E8006100040032000000E90018
:10C130008080440002C2B300824878004801900029
:10C140000201E90000015100808044003FBA9700DD
:10C150008B0178000A007800A1FC07009A0090008B
:10C160000188A3000400320098009000810F500065
:10C1700001003D00010078004F05BE004F04BE00E5
:10C180000080FA0000000600F4874700889FBE0088
:10C190008A9FBE008C9FBE008E1F78000605BE00E1
:10C1A0000404BE0081BF9F0082B79F00F3B79F00C9
:10C1B000B0009000E1B79F001301780092B79F0094
:10C1C00090069000400690000C06E9000D00E0008B
:10C1D00001003D001D002000EFB197000C804100E0
:10C1E0000048EB001E0020001F0037000C06E9008D
:10C1F0000FB09700CF80DE006109B900A0B79F00A3
:10C20000B1B79F00C2B79F00D3B79F000203BE0023
:10C210000002BE000800BE000A01BE00D9020700ED
:10C2200000077800EFB097000C80400003C3B30014
:10C23000034847008D06E9000FB897000000E900A9
:10C2400080BF9F002FB29700BFB297004FB39700F7
:10C25000DFB397000800BE000A01BE00C20207005B
:10C260000205BE000004BE000C00E0000D0032001C
:10C27000E00F5400E08F5C00E00F5D00E08F5D0098
:10C28000DAFF3A000D00E000D8FF3C008FB89700BD
:10C290000100E000030034001FB197000218A30062
:10C2A000D2FF3A000E00E00002003A00FFB1970012
:10C2B0001340A1000C0078004F0778004F06BE0025
:10C2C0004F05BE004F04BE004F01B1000000060044
:10C2D0000200FA00889FBE008A9FBE00800478009A
:10C2E00001047800020078001801900028059000F1
:10C2F00098007800B1BF9F00B80590000200E000F0
:10C30000020035000110A100B1BF9F00EA81570073
:10C31000A20020008A0078003002BE002003BE0088
:10C320000800780098FF0700480190000201E9002A
:10C3300000015100808045003FBA97008A017800D3
:10C340000900780026FC0700990090000188A300EE
:10C350000400320098009000810F500001003D0061
:10C36000010078004F05BE004F04BE000080FA00B7
:10C3700000000600FA874700889FBE008A9FBE0023
:10C380008C9FBE008E1F7800800478000104780026
:10C3900082057800180190002805900018077800A1
:10C3A000B80090000200E000020035000E10A1006D
:10C3B000010037001200200070006700E0B79F0006
:10C3C000090032003B02BE002B03BE00E00F52000A
:10C3D000E08F5A00E00F5B00E08F5B00020032004C
:10C3E0008A86E900010037008A067800E8026700C3
:10C3F000F5B79F00010032008D06E9003B02BE0048
:10C400002B03BE00E4AF9F00F5AF9F0086B79F00EF
:10C4100097B79F00480690000C06E9000C8040008A
:10C420000048EB00EFB297007FB2970089037800D5
:10C4300081047800D8AF9F00020478008BBF9F0072
:10C440008A057800034578002B0037000C06E900C8
:10C450006FAB97006F006300E90F500002003C00D3
:10C460000003B000010037007005B0000A03FB00B4
:10C470001604B100F90F53000C003E0000037800D1
:10C480000650A0001606B100F90F530007003E0049
:10C49000B4B79F00A5B79F00C7B79F00470107002B
:10C4A000CFB39700AFB297003FB297000C83440020
:10C4B000004B78000804E9008D06E9006FA897009A
:10C4C000FFA897000FB197009FB19700460020008A
:10C4D0008301D1000281D3008180D3000080D3008A
:10C4E0000603E900FAFF3A00E0AF9F00F1AF9F00BA
:10C4F00082B79F0093B79F00E10F56000F003600F0
:10C500006FA89700FFA897000FB197009FB1970001
:10C51000E00F5000E08F5800E00F5900E08F590005
:10C52000CAFF3A000800E000C8FF3C000D00E00030
:10C53000020034000E18A300C4FF3A0089007800FE
:10C54000F4B79F00870478005FAC97008A417800B9
:10C550000B0578008FBD97000500E0001200320047
:10C560003B02BE002B03BE00E4AF9F00F5AF9F006F
:10C5700086B79F0097B79F00E00F5200E08F5A00E8
:10C58000E00F5B00E08F5B00070032000C06E90063
:10C590000C804000034878000C06E9000C80400045
:10C5A00002C3B30002487800FFB297000500E00024
:10C5B000040032000C06E9000C80400002C2B30007
:10C5C00002487800480190000201E9000C01510086
:10C5D0008C8040000E0278008A0178000900780003
:10C5E0007FFB0700990090000188A300040032003F
:10C5F00098009000810F500001003D00010078007C
:10C600004F0778004F06BE004F05BE004F04BE0026
:10C61000AF01B1000000060080007800100020008B
:10C6200002022000828F500004003200E980500096
:10C63000E48F5000010036000000EB00000006000F
:10C64000889FBE008A1F7800800478000904780063
:10C6500088047800394578000A00FB00EEFF0700E7
:10C660000000E000F9FF3A00B0C2B300804F55006F
:10C6700005003200D0C2B3008000EB00804F5500AF
:10C6800005003A00020037008000EB00010037008F
:10C69000110020000804E8000000EB000300370050
:10C6A000EA00B900020050000003B0003801FB00AE
:10C6B00003FD2F0082814100E98F5100F8FF360011
:10C6C0000100E00001003A000000EA004F05780098
:10C6D0004F04BE0000000600F1FB2F0080804000E8
:10C6E000F98F500001003E000050A000000006003D
:10C6F000F9FF3700881F7800000478000008200048
:10C70000808F50001700350010082000808F5000E7
:10C710000B00340030082000808F500011003A00D8
:10C720009200780068805000000978003002BE0056
:10C730002003BE00049CBE000694BE000700370024
:10C740009202780064805200000978001000BE0058
:10C75000A5000700009CBE000294BE00100020004F
:10C76000010037000000EB004F04780000000600D5
:10C7700084082000848F50001D0032000D003C0012
:10C7800014082000848F50002700320002003C0073
:10C79000040820000400370024082000848F500083
:10C7A0002A00320044082000848F500048003A00DC
:10C7B0003B003700040A2000848F50002C00320018
:10C7C00004003C0004092000848F500040003A001F
:10C7D0002D003700020C2000828F50001E00320016
:10C7E000020F2000828F500039003A0030003700DD
:10C7F0009380E9000200E000050032008109780022
:10C800001102FB00CFA2DE00612BB9002D00370022
:10C8100081097800114278000482FB008002EB005D
:10C820006033B8002700370013027800E40052009C
:10C830000200E0000A003200810978001102BE0007
:10C840004FABDE00860378001E00370093027800AD
:10C85000E88052000E00370093027800E480520016
:10C86000810978001102BE006033B800150037005E
:10C870009380E9008109780011027800CFA2DE00E0
:10C88000612BB9000F00370013037800E800530054
:10C89000810978003102BE002103BE000900370083
:10C8A0009380E9000200E00002003200F1FF37004F
:10C8B0009380E90081097800110278008002EB0082
:10C8C0006033B8000498BE000690BE00100005005A
:10C8D0000000050044082000848F5000270032002B
:10C8E0000A003C0014082000848F50001C00320015
:10C8F00024082000848F5000260032000408200005
:10C90000848F50002C003A001C00370004092000DE
:10C91000848F50001F00320004003C008408200077
:10C92000848F500024003A0007003700040A2000DA
:10C93000848F500011003200040C2000848F5000BE
:10C940001D003A00060037009380E9008109780055
:10C9500091007800010878008248780015003700BF
:10C960009380E9008109780091007800010878003F
:10C97000CF91DE008288BE000E0037009380E90070
:10C980008109780091007800010878008208780019
:10C99000080037009380E900810978009100780051
:10C9A000010878006112B900612BB9008498BE00BB
:10C9B0008690BE001000050000000500F1F92F0070
:10C9C00080804000F98F500001003E00F005B20069
:10C9D00000000600F9FF370000000600BCFC07005D
:10C9E000FDFF0700FCFF3700810378001D000700F2
:10C9F0000001BE006000B8000478A30013003A00F4
:10CA00006220E10015003E000D0039008301D100D5
:10CA10000281D3008180D3008301D1000281D30041
:10CA20008180D3008301D1000281D3008180D300B3
:10CA30000538B000C42ADD00F300B2008381720023
:10CA400007F0A70003F0A0000000060083FF270006
:10CA5000020020006110B900F9FF370003FF270032
:10CA6000F7FF3700C70ADE00F107B200F50FB2008A
:10CA700008003200E1CF4200020032000170A00045
:10CA800024000500810F7000010032000408050039
:10CA900044000500810F700002003A0014000500F8
:10CAA0008502E9000000400081C04800FCFF3B0017
:10CAB0000170A00024000500020AB900001BB900A3
:10CAC0000200B8008100420081004300000006001F
:10CAD00000C0DA000000060000C0DA000000060016
:10CAE000889FBE008A9FBE0030044200B0844A0086
:10CAF00030054B0090854B006000B1000898BE00E7
:10CB00000A90BE000440E10005C8E10006D0E10043
:10CB100007D8E10002003100680040001008E8007A
:10CB20004F05BE004F04BE0000000600889FBE00F7
:10CB30008A9FBE003004BE002005BE0004185400C9
:10CB400005985C0006185D0007985D001100200044
:10CB50000440E10005C8E10006D0E10007D8E1008B
:10CB6000010039008000EB00108810004F05BE0066
:10CB70004F04BE0000000600F4874700889FBE00F7
:10CB80008A9FBE008C9FBE008E1F7800D0B79F008A
:10CB9000E1B79F00F2B79F0083BF9F000605BE006C
:10CBA0000404BE00CFAE97000000EB00C0B79F00AA
:10CBB000B0B79F00A0B79F0090B79F0080B79F00BD
:10CBC000000678004FB09700000140000000E00030
:10CBD00006003D003C0007000F0747004500070026
:10CBE0000F004000BEFF07000500370036000700B9
:10CBF0000F0747003F0007000F004000CBFF070072
:10CC00004FB797000E00E0000C0035005FB29700B0
:10CC1000EFB297007FB397008FBB97001000200002
:10CC2000010020006011B8000002720081827200D1
:10CC300002037300838373001C0007000C06E800E6
:10CC400001042000810F5600DEFF3A000E00E000D4
:10CC500005003D000802BE000A03BE0000FE2F00D2
:10CC60000F0040009EFF07000D00E00005003A00A5
:10CC70000FB297009FB297002FB39700BFB39700F2
:10CC80000A0007005FB09700EFB097007FB19700F0
:10CC90008FB997004F0778004F06BE004F05BE00C2
:10CCA0004F04BE004F01B100000006000100070064
:10CCB0000000060094B79F00A5B79F00B6B79F007D
:10CCC000C7B79F00000006009FB097004F08DE0026
:10CCD00002017000A2B79F000FB097004F01DE0065
:10CCE000818040008100710091B79F000EFE2F00EF
:10CCF00000000600DE0078004F09DE000000400062
:10CD00000000710080B79F006FA897004F01DE0000
:10CD100081804000010F71000E0007004F3ADE00D5
:10CD20000000400004007000E0AF9F000900070011
:10CD30000402420085824A0006034B0087834B00B1
:10CD4000DCFF07000802BE000A03BE0000FE2F0041
:10CD5000000006001FB29700AFB297003FB39700E4
:10CD6000CFB3970000000600881F7800180020004D
:10CD7000881F780080FF07008F87E9004F04780044
:10CD800000000600801FEB007BFF07008F87E90093
:10CD900000000600889FBE008A9FBE00E00F500082
:10CDA000E08F5800E00F5900E08F59000C003D0063
:10CDB0006044B8006055B8000000540081805C00F9
:10CDC00002015D0083815D0018002000150007004E
:10CDD00008003D00180007000004EB0005003700C4
:10CDE0000004EB000F00070002003D0012000700E6
:10CDF00018002000DCFF07000800E00006003200F9
:10CE00006022B8006033B8000000520081805A00F0
:10CE100002015B0083815B004F05BE004F04BE0032
:10CE200000000600E00F5200E08F5A00E00F5B00A8
:10CE3000E08F5B00000006006044B8006055B80059
:10CE40000402540085825C0006035D0087835D0058
:10CE500000000600889FBE008A9FBE008C1F7800DD
:10CE6000E00F5000E08F5800E00F5900E08F5900AC
:10CE70000D003D006044B8006055B800000054004B
:10CE800081805C0002015D0083815D001C00200048
:10CE90000820E10009A8E1000AB0E1000BB8E100B8
:10CEA0000D003D00080037000006EB00E00F5200C7
:10CEB000E08F5A00E00F5B00E08F5B0006003D0052
:10CEC0006044B8006055B8000402540085825C00DC
:10CED00006035D0087835D00AAFF07000C00E000E9
:10CEE000060032006022B8006033B8000000520033
:10CEF00081805A0002015B0083815B004F0678004D
:10CF00004F05BE004F04BE000000060000000000F8
:10CF1000CA0000001F000000000204000000000022
:10CF200006030000480300008803000026030000F9
:10CF3000680300002E040000A80300002E04000077
:10CF40002E0400002E0400002E0400002E04000019
:10CF50002E0400002E0400002E0400002E04000009
:10CF60002E0400002E0400002E0400002E040000F9
:10CF70002E0400002E0400002E0400002E040000E9
:10CF80002E0400002E0400002E0400002E040000D9
:10CF90002E0400002E0400002E0400002E040000C9
:10CFA0002E0400002E0400002E0400002E040000B9
:10CFB0002E0400002E0400002E0400002E040000A9
:10CFC0002E0400002E0400002E0400002E04000099
:10CFD0002E0400002E0400002E0400002E04000089
:10CFE0002E0400002E0400002E0400002E04000079
:10CFF0002E0400002E0400002E0400002E04000069
:10D000002E0400002E0400002E0400002E04000058
:10D010002E0400002E0400002E0400002E04000048
:10D020002E0400002E0400002E0400002E04000038
:10D030002E0400002E0400002E0400002E04000028
:10D040002E0400002E0400002E0400002E04000018
:10D050002E0400002E0400002E0400002E04000008
:10D060002E0400002E0400002E0400002E040000F8
:10D070002E0400002E0400002E0400002E040000E8
:10D080002E0400002E0400002E0400002E040000D8
:10D090002E0400002E0400002E0400002E040000C8
:10D0A0002E0400002E0400002E0400002E040000B8
:10D0B0002E0400002E0400002E0400002E040000A8
:10D0C0002E0400002E0400002E0400002E04000098
:10D0D0002E0400002E0400002E0400002E04000088
:10D0E0002E0400002E0400002E0400002E04000078
:10D0F0002E0400002E0400002E0400002E04000068
:10D100002E0400002E0400002E0400002E04000057
:10D110002E0400002E0400002E0400002E04000047
:10D120002E0400002E0400002E0400002E04000037
:10D130002E0400002E0400002E0400002E04000027
:10D140002E0400002E040000F20300001004000072
:10D150002E0400002E0400002E0400002E04000007
:10D160002E0400002E0400002E0400002E040000F7
:10D170002E0400002E0400002E0400002E040000E7
:10D180002E0400002E0400002E0400002E040000D7
:10D190002E0400002E0400002E0400002E040000C7
:10D1A0002E0400002E0400002E0400002E040000B7
:10D1B0002E0400002E0400002E0400002E040000A7
:10D1C0002E0400002E0400002E0400002E04000097
:10D1D0002E0400002E0400002E0400002E04000087
:10D1E0002E0400002E0400002E0400002E04000077
:10D1F0002E0400002E0400002E0400002E04000067
:10D200002E0400002E0400002E0400002E04000056
:10D210002E0400002E0400002E0400002E04000046
:10D220002E0400002E0400002E0400002E04000036
:10D230002E0400002E0400000000FE000000FE008E
:10D2400000020000000200001F0000000F08220082
:10D250000E6F23000E018800000000000000200077
:10D260000000E000020032000001200020028800DF
:10D2700014000700970107000000E00003003A00D7
:10D28000C0DF200001002000020037000000200065
:10D2900001002000810F7000010032000F00070024
:10D2A000000020000000E000020032000000020048
:10D2B00000000000EE150200000000000040DA004F
:10D2C0000000FE00000120000000E000020032002B
:10D2D000002020009001880000000600A1028800C4
:10D2E000800478000000EB001F003700E284440057
:10D2F00054A0B4009905BA00E284440054A0B400DC
:10D300009906BA00E284440054A0B4000006EB0081
:10D31000476FDE00FD07B200AE018800636CE100DC
:10D3200003003A000AD801000000EB000E003700AD
:10D33000606CE10008003A00004DEB000A05E800CF
:10D34000020039003420EC000AF0A0008B05E9004F
:10D35000F9FF3E00040037006168E100010032007F
:10D360000086EB000B00070019C7BA001905BA00C8
:10D370000E04E00003003A000A00E000DBFF3A0080
:10D3800000000600FE07B200AE0288008A047800A2
:10D39000F5FF37000CD0A300E20F4D001C003B004E
:10D3A00089027800354DBA000A05E800020039000C
:10D3B0003420EC000AF0A0008B05E9000F003200D9
:10D3C000254DBA000A05E800020039003420EC00BF
:10D3D0000AF0A0008B05E900080032000C00E00014
:10D3E0000600320015CDBA000A05E8000200390037
:10D3F0003420EC000AF0A0008B05E9008984E800E5
:10D4000054A0B4000B00E000E2FF3A000000060068
:10D410009902BA00055D78008B05E900F7FF32003C
:10D42000C82ADE00055D78008B05E900F3FF3200B5
:10D430000C00E000F1FF320019DDBA00EEFF37000A
:10D4400000000000000000000000000000000000DC
:10D4500000000000000000003600F800809FBE00C1
:10D46000829FBE00849FBE00869FBE000000FA001F
:10D47000C028A9000000EB00DC0E07000080FA00C5
:10D480004F03BE004F02BE004F01BE004F00BE0062
:10D490003600F900004006003600F800809FBE000C
:10D4A000829FBE00849FBE00869FBE000000FA00DF
:10D4B000D30E0700C048A90010002000CB0E0700C3
:10D4C0000080FA004F03BE004F02BE004F01BE00B5
:10D4D0004F00BE003600F900004006003600F8009C
:10D4E000809FBE00829FBE00849FBE00869FBE00BC
:10D4F0000000FA00C068A90020002000BB0E070051
:10D500000080FA004F03BE004F02BE004F01BE0074
:10D510004F00BE003600F900004006003600F8005B
:10D52000809FBE00829FBE00849FBE00869FBE007B
:10D530000000FA00C088A90030002000AB0E0700F0
:10D540000080FA004F03BE004F02BE004F01BE0034
:10D550004F00BE003600F900004006003600F8001B
:10D56000809FBE00829FBE00849FBE00869FBE003B
:10D570000000FA00C608A900700020009B0E0700FA
:10D580000080FA004F03BE004F02BE004F01BE00F4
:10D590004F00BE003600F900004006003600F800DB
:10D5A000809FBE00829FBE00849FBE00869FBE00FB
:10D5B0000000FA002146800000102000008060007A
:10D5C0000000E00003003200C508A900C0002000F0
:10D5D000860E0700214680000002200000806000C7
:10D5E0000000E00003003200C4A8A9009000200061
:10D5F0007E0E070020468000700060000000E00002
:10D6000003003200C488A900A0002000770E0700A4
:10D6100020468000610060000000E000030032004E
:10D62000C408A900B0002000700E0700FFFF3700FB
:10D630003600F800809FBE00829FBE00849FBE001F
:10D64000869FBE000000FA004B0B07001048A9009F
:10D650000080FA004F03BE004F02BE004F01BE0023
:10D660004F00BE003600F900004006003600F8000A
:10D67000809FBE00829FBE00849FBE00869FBE002A
:10D680000000FA006E0B07001068A9000080FA0085
:10D690004F03BE004F02BE004F01BE004F00BE0050
:10D6A0003600F900004006000040DA000000FE00ED
:10D6B000EC8747008E1F78006C87570044002000DD
:10D6C000041F7800000F78006C87570002AFBE007F
:10D6D000E1BF9F006C805700CE0407001E00BE0013
:10D6E0004F077800CF00B10000000600EC8747002C
:10D6F0008E1F780011002000A1BF9F006C8757008B
:10D70000002F78006C805700C40407001E007800CA
:10D710004F077800CF00B100000006008102D00062
:10D720008502E90001187800021878000518410008
:10D7300003187800041878000518420004087800DF
:10D7400000000600889FBE008A9FBE008C1F7800E4
:10D750004400F800070F20002702880033059000DE
:10D7600008F02F000A40E100020032000000200013
:10D77000380037004600F8004800F8004A00F8007A
:10D780004C00F8004E00F8008A0A2C003A0288008B
:10D790002304900058028800130490004802880077
:10D7A000530590007A028800430590006A028800C1
:10D7B000811F780063059000040678000302900042
:10D7C000620252000000E900850378000080080032
:10D7D00018000000320D78004618C30004800900CC
:10D7E0004618C4001201C4003100CD003C80CA00BC
:10D7F00000B0CB000580CD001301C5000500CD00B1
:10D800008405E900880478000609C3000B8008003D
:10D81000020000001900CA000609C4003900CD004A
:10D820001900CA000209C4003900CD001900CA005D
:10D830001201C4003900CD00EA0198004F007800C1
:10D840004E00F9004C00F9004A00F9004800F900C8
:10D850004600F9004400F9004F0678004F05BE006D
:10D860004F04BE00000006000800FA008E81E800A8
:10D8700080097800640047000108780066004700CE
:10D880000208780066004700100F78000A00370091
:10D89000640047001000780010407800E400470062
:10D8A000910078000101E800E40047008208780058
:10D8B000790C07001E0FE9001E0078000000E00050
:10D8C000F3FF3A0066004700100078000080FA007D
:10D8D000000006000000050080017800020037000B
:10D8E000B15978000201E9000200E000FCFF3A00B3
:10D8F000000006000000FA00CFB8970068815700CA
:10D90000A0808000100078002D0007000080FA0041
:10D910000000060000003700EA874700889FBE002D
:10D920008A9FBE008E1F78000004780003007800F4
:10D930007287570084E2260055C72600049FBE0068
:10D94000C3962200030F78006C875700004FEB004E
:10D9500011059000A1049000910578000200E000FC
:10D96000020032000207780001003700728757007A
:10D970000000E00002003A000E007800720207008A
:10D980000A00E000030035008A0F50000100360055
:10D990000A0078000B027800890178000001780005
:10D9A0008E00780008007800270007004F077800F5
:10D9B0004F05BE004F04BE00AF00B10000000600DE
:10D9C0000200FA00881F780000047800E2BF9F0080
:10D9D0006481570008007800D1010700980090008A
:10D9E0000148A300010032000080EB004F047800E2
:10D9F0000080FA0000000600889FBE008A1F7800A1
:10DA0000800478004900900002047800800F5400E0
:10DA10000100360000047800080178006A8544009F
:10DA20001A007800ACFF07001A004400000D7800CF
:10DA3000E8844400990C14000048EB004F0578007E
:10DA40004F04BE0000000600F287470000060000F9
:10DA5000000200001F000000889FBE008A9FBE00D9
:10DA60008C9FBE008E1F780080047800010578002E
:10DA700002047800830578006107620002003A0022
:10DA80008B0F540008003900080178008A007800E4
:10DA9000090078005D0207008B0F54000200390076
:10DAA000880578001E003700088655000C017800B4
:10DAB000F00F560001003600020120000102200094
:10DAC0007E805700B90107008C06780005003700FA
:10DAD00002012000FE805700090078004B02070079
:10DAE000F0865600EF8F5600F9FF3E004461DE00DD
:10DAF00000FF2F008091B9000C014100FE8057000B
:10DB000009007800410207000E00E00004003A001E
:10DB1000080178008A007800090078003B020700BD
:10DB20000B0078004F0778004F06BE004F05BE007F
:10DB30004F04BE002F01B1000000060000000500E8
:10DB40000000050000000500000178000040EB0027
:10DB50008080FB0081804000C30B21008181410057
:10DB6000134278000404E00004003A00D00B2100C6
:10DB7000810040001140780000000600920178000A
:10DB8000934F520005003A00D00B21008100400065
:10DB9000114078000309E800010037000040E80068
:10DBA000EA4F5000EAFF360000000600F687470003
:10DBB000889FBE008A9FBE008C9FBE008E1F78008B
:10DBC000800478000104780083057800040678005A
:10DBD0000000EB00C0B79F008080EB00D1B79F0032
:10DBE000E0B79F00F2B79F000008200080BF9F00B1
:10DBF00098007800010078000005EB000100370074
:10DC00000A05E800304178000204E0000300320019
:10DC100053C2B300834F5100F9FF3A000A00E000FD
:10DC2000040032000A01780009007800F7010700BB
:10DC3000180C45001807780050C2B3009E4F100022
:10DC400033013A000E07E8000E0C78001000370090
:10DC5000CFB097000100A0000B003700CFB09700B5
:10DC60000110A00008003700CFB097000120A000ED
:10DC700005003700CFB097000130A0000200370048
:10DC8000CFB097000140A000C1B79F00000CE80092
:10DC90001800780090407800B2C2B30082CF5000E4
:10DCA000F1FF320007003C0002C2B30082CF5000F7
:10DCB000F0FF320032C2B30082CF500007003A00BA
:10DCC000EFFF3700D2C2B30082CF5000E0FF320036
:10DCD00002C3B30082CF5000E0FF3200A2C2B30003
:10DCE00082CF50000D003A00000CE8001C80E900D3
:10DCF000000E780010007800E0B79F000000E00000
:10DD00000F003D00CFB097000100A200C1B79F00F7
:10DD10000000EA00E0B79F00090037002302070077
:10DD2000E0B79F0001003700000CE8001800780001
:10DD30009000FB000103B100E98F5000FAFF3600AC
:10DD40004FB097000008A300020032000010A100AD
:10DD5000C0B79F0018007800E1C2B30090CF100058
:10DD600016003A008000EB00D1B79F000000E800E9
:10DD7000000C7800A1C2B30090CF100006003A005A
:10DD8000000CE8001C80E900000E7800100078000C
:10DD9000D0B79F000900370004020700D0B79F00EA
:10DDA00001003700000CE800180078009000FB002C
:10DDB0000103B100E98F5000FAFF36000800780037
:10DDC00061FF070080467800180078001000FB0013
:10DDD0001C02070091062000810F5000380032001D
:10DDE00012003C0041062000810F50003400320038
:10DDF0000A003C0011062000810F50002000320074
:10DE000031062000810F50009A003200510220009C
:10DE1000810F5000AE003A00A700370071062000C5
:10DE2000810F5000AA003C0082003700010720004B
:10DE3000810F50005C00320007003C00E10620002A
:10DE4000810F500074003200F1062000810F500055
:10DE50009F003A003900370051072000810F500021
:10DE60002700320081072000810F5000420032005D
:10DE700031072000810F500095003A0085003700DF
:10DE80008D80FB000C01780000FE2F000F00400089
:10DE9000F30107000000E0009C0032001800780049
:10DEA000000CE8009041780002FE2F000F014100B5
:10DEB000F88057000900780021FF07000E003700A6
:10DEC0008D80FB008C0178001200200000FE2F00E6
:10DED0000F004000010207000000E0008B0032004C
:10DEE000180CE80002FE2F000F014100F8805700D7
:10DEF0000900780011FF0700000545008400370085
:10DF00008D80FB008C0178000001EB0000FE2F00EB
:10DF10000F004000F10107000000E0007B0032002C
:10DF2000180CE80002FE2F000F014100F880570096
:10DF30000900780001FF0700EFFF37008D80FB002C
:10DF40008C0178000001EB0000FE2F000F00400064
:10DF5000E20107000000E0006C003200180CE8004D
:10DF600002FE2F000F014100F880570009007800E1
:10DF7000F2FE0700E0FF37008D80FB008C01780087
:10DF80000001EB0000FE2F000F004000D30107004E
:10DF90000000E0005D00320018007800000CE8008E
:10DFA00090417800160037008C0178000001EB00EA
:10DFB000010F200000FE2F000F004000C7010700E6
:10DFC0000000E00051003200180CE8000FB097008C
:10DFD0009FB097002FB19700BFB19700E00F50009E
:10DFE000E08F5800E00F5900E08F590003003A001D
:10DFF0008001EB00620B21004000370083C7B300B3
:10E0000002FE2F000F014100F88057000900780040
:10E01000CBFE0700B8FF37000B0145008D80FB00E9
:10E020008C01780000FE2F000F0040000402070062
:10E03000360037008D80FB000C01780000FE2F00B9
:10E040000F004000860107000000E0002F003200B2
:10E0500018007800000CE8009041780002FE2F00C4
:10E060000F014100F880570009007800B4FE070056
:10E07000A1FF370000C8B30080CF560023003A004C
:10E08000180CE8001C80E900000E780010407800B1
:10E090000D00370000C8B30080CF56001B003A00C7
:10E0A000180CE8001C80E900000E78008001EB00ED
:10E0B000100178001100370001C8B30081CF56006D
:10E0C00012003A00180CE800E0DF9F00080037005B
:10E0D00050C2B300E0DF9F000E0C78000000EB00A0
:10E0E000C0B79F00E0B79F008080EB00D1B79F00D2
:10E0F00013002000E2FD2F000F014100F8805700BF
:10E100000900780007FE07007BFF3700180CE800C5
:10E110000A0078004F0778004F06BE004F05BE008A
:10E120004F04BE006F01B100000006008200FA003B
:10E13000889FBE008A1F780000057800820478005E
:10E14000C13F9F000004EB00100037000902780077
:10E1500088017800A2F72F000F01410081F72F00FE
:10E160008F8040000A00780090FE07000800400001
:10E17000880F500004003D00B0042000C0868800D5
:10E180000084EB0004003700000478004F3897004B
:10E190001004E000EDFF3A00080078004F05780019
:10E1A0004F04BE000080FA0000000600889FBE00F9
:10E1B0008A9FBE00800478000200E0005A0032000E
:10E1C00001407800814C780082814400F1F99F0081
:10E1D000E20F51005400360091449800A144980089
:10E1E000E1F99F00D1F99F00E60F51004E00360083
:10E1F000B1449800C1F99F00E80F51004A00360071
:10E200000905EA00630565000A8444000A05510017
:10E21000C1FF2F00010565000080FB008000EB00BE
:10E220001210200013102000F7010700008CBE0020
:10E230000A01440060B99F0071B99F00E80F5500C2
:10E2400039003600200498003104980040049800FA
:10E250005104980020B99F00000A0000000200004D
:10E260001F00000031B99F0040B99F0051B99F00C5
:10E27000F80F55002F0036006004980071049800D4
:10E28000000C9800110C9800200C9800310C98009C
:10E29000400C9800510C980020B19F0031B19F00B4
:10E2A00040B19F0051B19F0060B19F0071B19F00CC
:10E2B00000B99F0011B99F0064016400780141001A
:10E2C00002044400020555006011B8000203BE00BC
:10E2D0000002BE000403BE006022B800000072000D
:10E2E0008180720002017300838173000F00370088
:10E2F00008027800009ABE00029ABE00009ABE0092
:10E300000292BE00000C9800110C9800220C98009C
:10E31000330C9800400C9800510C9800620C980047
:10E32000730C98000A02B1000802B000FF0F5500FC
:10E33000EFFF3E00090078004F05BE004F04BE000D
:10E340000000060000000600A001210000000600F9
:10E35000FDFF0700C0808800B08088000000060034
:10E3600080007800040037003104E00002003A0029
:10E370000000510000000600010178000108A30020
:10E38000F9FF3A008101780031017800F4EF2F00A5
:10E39000020242000281EA00020162000408280031
:10E3A00004016100F7FF320083007800010178006A
:10E3B0003104E000FDFF3A000000510000000600BB
:10E3C000889FBE008A1F7800800478004900900072
:10E3D00002047800800F5400010036000004780029
:10E3E000080178006A8544001A00780040FD0700A3
:10E3F0001A004400000D7800E8844400990C1400D1
:10E400000048EB004F0578004F04BE0000000600F6
:10E41000100078001AFD3700900190000388A300D7
:10E4200001003200E6FF37000348A30001003A0074
:10E43000F7FF070000000600889FBE008A1F7800D3
:10E4400000047800010578000000EB000800E000FF
:10E450001A003200180090000058A3000C0032008F
:10E46000EA04440068009000990F1000080036008C
:10E47000B80990000001EB008200780008007800E5
:10E48000030001000080EB001900E0000B003200E7
:10E49000740044000008EB006C0044000008EB002E
:10E4A0006A0044000008EB000000EB000A00E000F6
:10E4B000020032001800780092FC07004F05780037
:10E4C0004F04BE0000000600889FBE008A1F78002F
:10E4D0000004BE000000EB000800E000290032004C
:10E4E000180090000058A300120032006A05440092
:10E4F000680090009A0F100008003600B8099000DC
:10E500000001EB00820078000800780003000100A1
:10E510000080EB001A00E0001A0032007400440092
:10E520000008EB006C0044000008EB006A004400A7
:10E530000008EB00780A900008109000800F52004D
:10E54000060031000002520011002000CFA2DE00C0
:10E55000612BB900180078005BFC07000002200066
:10E56000080040000008EB007E0044000008EB00BB
:10E570000000EB000900E000020032001800780003
:10E5800060FC07004F0578004F04BE000000060045
:10E59000800078001000200002022000828F5000CE
:10E5A00004003200E9805000E48F50000100360082
:10E5B0000000EB0000000600889FBE008A1F780064
:10E5C00080047800090478008804780039457800D0
:10E5D0000A00FB00EEFF07000000E000F9FF3A0030
:10E5E000B0C2B300804F550005003200D0C2B30066
:10E5F0008000EB00804F550005003A000200370014
:10E600008000EB0001003700110020000804E80042
:10E610000000EB0003003700EA00B90002005000E0
:10E620000003B0003801FB0003FD2F008281410090
:10E63000E98F5100F8FF36000100E00001003A00C8
:10E640000000EA004F0578004F04BE0000000600FD
:10E65000F1FB2F0080804000F98F500001003E0048
:10E660000050A00000000600F9FF3700881F780066
:10E670000004780000082000808F5000170035004B
:10E6800010082000808F50000B003400300820005C
:10E69000808F500011003A0092007800688050008E
:10E6A000000978003002BE002003BE00049CBE00BA
:10E6B0000694BE0007003700920278006480520082
:10E6C000000978001000BE009E000700009CBE00FC
:10E6D0000294BE0010002000010037000000EB0093
:10E6E0004F0478000000060084082000848F50004A
:10E6F0001D0032000D003C0014082000848F5000E3
:10E700002700320002003C0004082000040037000B
:10E7100024082000848F50002A0032004408200082
:10E72000848F500048003A003B003700040A200064
:10E73000848F50002C00320004003C0004092000AB
:10E74000848F500040003A002D003700020C20005A
:10E75000828F50001E003200020F2000828F500076
:10E7600039003A00300037009380E9000200E000F1
:10E7700005003200810978001102FB00CFA2DE0003
:10E78000612BB9002D003700810978001142780013
:10E790000482FB008002EB006033B80027003700E2
:10E7A00013027800E40052000200E0000A00320088
:10E7B000810978001102BE004FABDE0086037800AD
:10E7C0001E00370093027800E88052000E003700E8
:10E7D00093027800E4805200810978001102BE00A3
:10E7E0006033B800150037009380E9008109780094
:10E7F00011027800CFA2DE00612BB9000F003700B4
:10E8000013037800E8005300810978003102BE004C
:10E810002103BE00090037009380E9000200E000F8
:10E8200002003200F1FF37009380E900810978008F
:10E83000110278008002EB006033B8000498BE003B
:10E840000690BE00100005000000050044082000EE
:10E85000848F5000270032000A003C00140820007A
:10E86000848F50001C00320024082000848F500048
:10E870002600320004082000848F50002C003A004B
:10E880001C00370004092000848F50001F00320054
:10E8900004003C0084082000848F500024003A00CB
:10E8A00007003700040A2000848F50001100320056
:10E8B000040C2000848F50001D003A000600370031
:10E8C0009380E900810978009100780001087800C0
:10E8D00082487800150037009380E90081097800AC
:10E8E0009100780001087800CF91DE008288BE0098
:10E8F0000E0037009380E9008109780091007800CC
:10E900000108780082087800080037009380E90049
:10E910008109780091007800010878006112B9003F
:10E92000612BB9008498BE008690BE0010000500DF
:10E93000000005000000060085FE0700FDFF07003F
:10E94000FCFF3700810378001D0007000001BE00B6
:10E950006000B8000478A30013003A006220E100D0
:10E9600015003E000D0039008301D1000281D30063
:10E970008180D3008301D1000281D3008180D30044
:10E980008301D1000281D3008180D3000538B0001B
:10E99000C42ADD00F300B2008381720007F0A700F3
:10E9A00003F0A0000000060083FF27000200200003
:10E9B0006110B900F9FF370003FF2700F7FF3700A8
:10E9C000C70ADE00F107B200F50FB20008003200FE
:10E9D000E1CF4200020032000170A00024000500D7
:10E9E000810F70000100320004080500440005009A
:10E9F000810F700002003A00140005008502E90052
:10EA00000000400081C04800FCFF3B000170A000F6
:10EA100024000500020AB900001BB9000200B8007A
:10EA200081004200810043000000060000C0DA00BF
:10EA30000000060000C0DA0000000600534C000091
:10EA40004156000045200000537400006172000030
:10EA5000742000000A0D0000000000009610000065
:10EA600020000000000E0000000200001F00000057
:10EA70008000000010100000020000008200000072
:10EA8000FFFF0000001200000008000082000000EC
:10EA90008813A70013C51300E41303001421140006
:10EAA00040145F00147D14009C14BB0014D91400A2
:10EAB000F81416001535150054157200159115003F
:10EAC000AF15CE0015EC15000A16290016471600E2
:10EAD0006616840016A21600C116DF0016FD160089
:10EAE0001B173900175717007617940017B2170035
:10EAF000D017ED00170B18002918470018651800EB
:10EB00008218A00018BE1800DB18F90018161900AA
:10EB100033195100196E19008B19A80019C6190074
:10EB2000E31900001A1C1A00391A56001A731A0049
:10EB30008F1AAC001AC91A00E51A01001B1E1B002F
:10EB40003A1B56001B721B008E1BAA001BC61B0023
:10EB5000E21BFD001B191C00351C50001C6B1C0027
:10EB6000871CA2001CBD1C00D81CF3001C0E1D003D
:10EB7000281D43001D5E1D00781D93001DAD1D0066
:10EB8000C71DE1001DFB1D00151E2F001E481E00A5
:10EB9000621E7B001E951E00AE1EC7001EE01E00FA
:10EBA000F91E12001F2A1F00431F5C001F741F0064
:10EBB0008C1FA4001FBC1F00D41FEC001F042000EA
:10EBC0001B203300204A200061207800208F200085
:10EBD000A620BC0020D32000E9200000211621003F
:10EBE0002C214200215821006D2183002198210011
:10EBF000AD21C20021D72100EC2101002215220005
:10EC00002A223E002252220066227A00228E220010
:10EC1000A122B40022C82200DB22EE002201230040
:10EC200013232600233823004A235C00236E23008D
:10EC30008023920023A32300B423C50023D62300FE
:10EC4000E723F8002308240019242900243924008C
:10EC50004924580024682400772486002495240041
:10EC6000A424B30024C22400D024DE0024EC240019
:10EC7000FA2408002515250023253000253D250010
:10EC80004A255700256325006F257C00258825002F
:10EC900093259F0025AB2500B625C10025CC250076
:10ECA000D725E10025EC2500F6250000260A2600E0
:10ECB00014261D002627260030263900264226006D
:10ECC0004A265300265B260063266B002673260027
:10ECD0007A2682002689260090269700269D260007
:10ECE000A426AA0026B02600B626BC0026C126000F
:10ECF000C626CC0026D12600D526DA0026DE260040
:10ED0000E326E70026EA2600EE26F20026F5260096
:10ED1000F826FB0026FE2600002702002705270014
:10ED200007270800270A27000B270D00270E2700BA
:10ED30000E270F002710270010271000271027008C
:10ED400010270F00270E27000E270D00270B270086
:10ED50000A270800270727000527020027002700A9
:10ED6000FE26FB0026F82600F526F20026EE2600F9
:10ED7000EA26E70026E32600DE26DA0026D526006E
:10ED8000D126CC0026C62600C126BC0026B6260009
:10ED9000B026AA0026A426009D26970026902600CD
:10EDA00089268200267A260073266B0026632600B9
:10EDB0005B265300264A26004226390026302600CC
:10EDC00027261D00261426000A26000026F6250008
:10EDD000EC25E10025D72500CC25C10025B625006E
:10EDE000AB259F002593250088257C00256F2500F5
:10EDF00063255700254A25003D25300025232500A1
:10EE00001525080025FA2400EC24DE0024D0240077
:10EE1000C224B30024A4240095248600247724006F
:10EE20006824580024492400392429002419240086
:10EE30000824F80023E72300D623C50023B42300C9
:10EE4000A3239200238023006E235C00234A230027
:10EE500038232600231323000123EE0022DB2200A7
:10EE6000C822B40022A122008E227A00226622004B
:10EE700052223E00222A22001522010022EC21000B
:10EE8000D721C20021AD210098218300216D2100EE
:10EE900058214200212C21001621000021E92000E8
:10EEA000D320BC0020A620008F2078002061200005
:10EEB0004A203300201B20000420EC001FD41F0038
:10EEC000BC1FA4001F8C1F00741F5C001F431F0089
:10EED0002A1F12001FF91E00E01EC7001EAE1E00F2
:10EEE000951E7B001E621E00481E2F001E151E0070
:10EEF000FB1DE1001DC71D00AD1D93001D781D0009
:10EF00005E1D43001D281D000E1DF3001CD81C00B3
:10EF1000BD1CA2001C871C006B1C50001C351C0073
:10EF2000191CFD001BE21B00C61BAA001B8E1B0048
:10EF3000721B56001B3A1B001E1B01001BE51A002A
:10EF4000C91AAC001A8F1A00731A56001A391A001F
:10EF50001C1A00001AE31900C619A800198B190021
:10EF60006E195100193319001619F90018DB180031
:10EF7000BE18A0001882180065184700182918004C
:10EF80000B18ED0017D01700B21794001776170072
:10EF900057173900171B1700FD16DF0016C11600A2
:10EFA000A21684001666160047162900160A1600D7
:10EFB000EC15CE0015AF1500911572001554150013
:10EFC0003515160015F81400D914BB00149C140054
:10EFD0007D145F00144014002114030014E4130096
:10EFE000C513A7001388130069134B00132C1300DB
:10EFF0000D13EF0012D01200B11293001274120020
:10F000005512370012181200FA11DB0011BC110062
:10F010009E117F00116111004211240011061100A0
:10F02000E710C90010AA10008C106E00104F1000DD
:10F030003110130010F50F00D70FB9000F9A0F0011
:10F040007C0F5E000F400F00230F05000FE70E003E
:10F05000C90EAB000E8E0E00700E52000E350E0063
:10F06000170EFA000DDD0D00BF0DA2000D850D007D
:10F07000680D4A000D2D0D00100DF4000CD70C008A
:10F08000BA0C9D000C810C00640C47000C2B0C008A
:10F090000F0CF2000BD60B00BA0B9E000B820B007C
:10F0A000660B4A000B2E0B00130BF7000ADB0A005D
:10F0B000C00AA5000A890A006E0A53000A380A002D
:10F0C0001D0A02000AE80900CD09B20009980900EA
:10F0D0007D096300094909002F09150009FB080093
:10F0E000E108C80008AE080095087B000862080027
:10F0F0004908300008170800FE07E60007CD0700A2
:10F10000B4079C00078407006C075400073C070005
:10F1100024070C0007F50600DD06C60006AF060052
:10F1200098068100066A060054063D000627060080
:10F130001006FA0005E40500CE05B80005A3050099
:10F140008D057800056305004E053900052405008E
:10F150000F05FB0004E60400D204BE0004AA04006C
:10F1600096048200046F04005C0448000435040027
:10F1700022040F0004FD0300EA03D80003C60300C5
:10F18000B403A200039003007E036D00035C030040
:10F190004B033A00032903001803080003F7020099
:10F1A000E702D70002C70200B802A80002990200D5
:10F1B0008A027B00026C02005D024E0002400200E7
:10F1C00032022400021602000802FB0001ED0100D9
:10F1D000E001D30001C60100B901AD0001A10100A9
:10F1E00094018800017D010071016500015A010050
:10F1F0004F014400013901002F012400011A0100D0
:10F200001001060001FC0000F300E90000E000002E
:10F21000D700CE0000C60000BD00B50000AD000064
:10F22000A5009D00009600008E0087000080000071
:10F2300079007300006C000066006000005A000056
:10F2400054004F00004A000044003F00003B000013
:10F2500036003200002D00002900260000220000A8
:10F260001E001B0000180000150012000010000016
:10F2700000120000000200001F0000000E000B0042
:10F28000000900000800060000050000030002005D
:10F29000000200000100000000000000000000006B
:10F2A0000000000001000200000200000300050051
:10F2B0000006000008000900000B00000E0010000E
:10F2C0000012000015001800001B00001E002200A4
:10F2D0000026000029002D000032000036003B000F
:10F2E000003F000044004A00004F000054005A0054
:10F2F0000060000066006C00007300007900800070
:10F30000008700008E009600009D0000A500AD0063
:10F3100000B50000BD00C60000CE0000D700E00030
:10F3200000E90000F300FC000006010010011A00D3
:10F33000012401002F013900014401004F015A004E
:10F340000165010071017D00018801009401A100A7
:10F3500001AD0100B901C60001D30100E001ED00DB
:10F3600001FB0100080216000224020032024000E4
:10F37000024E02005D026C00027B02008A029900CC
:10F3800002A80200B802C70002D70200E702F70095
:10F390000208030018032900033A03004B035C0032
:10F3A000036D03007E03900003A20300B403C600B4
:10F3B00003D80300EA03FD00030F04002204350014
:10F3C000044804005C046F00048204009604AA0050
:10F3D00004BE0400D204E60004FB04000F05240070
:10F3E000053905004E056300057805008D05A3006D
:10F3F00005B80500CE05E40005FA05001006270053
:10F40000063D060054066A00068106009806AF0015
:10F4100006C60600DD06F500060C070024073C00C2
:10F42000075407006C078400079C0700B407CD0051
:10F4300007E60700FE0717000830080049086200C9
:10F44000087B08009508AE0008C80800E108FB002A
:10F45000081509002F094900096309007D09980072
:10F4600009B20900CD09E80009020A001D0A3800A6
:10F470000A530A006E0A89000AA50A00C00ADB00C6
:10F480000AF70A00130B2E000B4A0B00660B8200D2
:10F490000B9E0B00BA0BD6000BF20B000F0C2B00CF
:10F4A0000C470C00640C81000C9D0C00BA0CD700BA
:10F4B0000CF40C00100D2D000D4A0D00680D850098
:10F4C0000DA20D00BF0DDD000DFA0D00170E350069
:10F4D0000E520E00700E8E000EAB0E00C90EE7002D
:10F4E0000E050F00230F40000F5E0F007C0F9A00E7
:10F4F0000FB90F00D70FF5000F13100031104F0098
:10F50000106E10008C10AA0010C91000E710060041
:10F510001124110042116100117F11009E11BC00E5
:10F5200011DB1100FA111800123712005512740085
:10F5300012931200B112D00012EF12000D132C0022
:10F54000134B130069130000001A0000C0040000F0
:10F55000800000000010000010000000800000008B
:10F56000D210000006000000800000001210000011
:10F570000200000080000000C01E0000C00100006A
:10F58000820000005F00000011BD110000FF0000BC
:10F5900037BD370000375F0000001100BD110000CB
:10F5A000FFBE37007B38BE00375F00000011BD0092
:10F5B0001100FF007C383900397C38005F00000002
:10F5C00011BD110000FF3A0039F739003A395F00E8
:10F5D00000001100BD110000FFF83900B53AF80035
:10F5E000395F00000011BD001100FF00B63A730042
:10F5F0003BB63A005F00000011BD110000FF74002F
:10F600003B313C00743B5F0000001100BD11000065
:10F61000FF323C00EF3C32003C5F00000011BD00B7
:10F620001100FF00F03CAD003DF03C005F00000029
:10F6300011BD110000FFAE003D6B3E00AE3D5F000E
:10F6400000001100BD110000FF6C3E00293F6C005E
:10F650003E5F00000011BD001100FF002A3FE700DF
:10F660003F2A3F005F00000011BD110000FFE800CD
:10F670003FA54000E83F5F0000001100BD11000001
:10F68000FFA640006341A600405F00000011BD00DE
:10F690001100FF0064412100426441005F0000004E
:10F6A00011BD110000FF220042DF420022425F0034
:10F6B00000001100BD110000FFE042009D43E0008A
:10F6C000425F00000011BD001100FF009E435B007F
:10F6D000449E43005F00000011BD110000FF5C006C
:10F6E000441945005C445F0000001100BD1100009A
