:020000040000fa
:080000000002040000000000f2
:020000040000fa
:04000800fa020000f8
:020000040000fa
:04000c003c030000b1
:020000040000fa
:040010007c0300006d
:020000040000fa
:040014001a030000cb
:020000040000fa
:040018005c03000085
:020000040000fa
:04001c0022040000ba
:020000040000fa
:040020009c0300003d
:020000040000fa
:0400240022040000b2
:020000040000fa
:0400280022040000ae
:020000040000fa
:04002c0022040000aa
:020000040000fa
:0400300022040000a6
:020000040000fa
:0400340022040000a2
:020000040000fa
:04003800220400009e
:020000040000fa
:04003c00220400009a
:020000040000fa
:040040002204000096
:020000040000fa
:040044002204000092
:020000040000fa
:04004800220400008e
:020000040000fa
:04004c00220400008a
:020000040000fa
:040050002204000086
:020000040000fa
:040054002204000082
:020000040000fa
:04005800220400007e
:020000040000fa
:04005c00220400007a
:020000040000fa
:040060002204000076
:020000040000fa
:040064002204000072
:020000040000fa
:04006800220400006e
:020000040000fa
:04006c00220400006a
:020000040000fa
:040070002204000066
:020000040000fa
:040074002204000062
:020000040000fa
:04007800220400005e
:020000040000fa
:04007c00220400005a
:020000040000fa
:040080002204000056
:020000040000fa
:040084002204000052
:020000040000fa
:04008800220400004e
:020000040000fa
:04008c00220400004a
:020000040000fa
:040090002204000046
:020000040000fa
:040094002204000042
:020000040000fa
:04009800220400003e
:020000040000fa
:04009c00220400003a
:020000040000fa
:0400a0002204000036
:020000040000fa
:0400a4002204000032
:020000040000fa
:0400a800220400002e
:020000040000fa
:0400ac00220400002a
:020000040000fa
:0400b0002204000026
:020000040000fa
:0400b4002204000022
:020000040000fa
:0400b800220400001e
:020000040000fa
:0400bc00220400001a
:020000040000fa
:0400c0002204000016
:020000040000fa
:0400c4002204000012
:020000040000fa
:0400c800220400000e
:020000040000fa
:0400cc00220400000a
:020000040000fa
:0400d0002204000006
:020000040000fa
:0400d4002204000002
:020000040000fa
:0400d80022040000fe
:020000040000fa
:0400dc0022040000fa
:020000040000fa
:0400e00022040000f6
:020000040000fa
:0400e40022040000f2
:020000040000fa
:0400e80022040000ee
:020000040000fa
:0400ec0022040000ea
:020000040000fa
:0400f00022040000e6
:020000040000fa
:0400f40022040000e2
:020000040000fa
:0400f80022040000de
:020000040000fa
:0400fc0022040000da
:020000040000fa
:0401000022040000d5
:020000040000fa
:0401040022040000d1
:020000040000fa
:0401080022040000cd
:020000040000fa
:04010c0022040000c9
:020000040000fa
:0401100022040000c5
:020000040000fa
:0401140022040000c1
:020000040000fa
:0401180022040000bd
:020000040000fa
:04011c0022040000b9
:020000040000fa
:0401200022040000b5
:020000040000fa
:0401240022040000b1
:020000040000fa
:0401280022040000ad
:020000040000fa
:04012c0022040000a9
:020000040000fa
:0401300022040000a5
:020000040000fa
:0401340022040000a1
:020000040000fa
:04013800220400009d
:020000040000fa
:04013c002204000099
:020000040000fa
:040140002204000095
:020000040000fa
:040144002204000091
:020000040000fa
:04014800220400008d
:020000040000fa
:04014c002204000089
:020000040000fa
:040150002204000085
:020000040000fa
:040154002204000081
:020000040000fa
:04015800220400007d
:020000040000fa
:04015c002204000079
:020000040000fa
:040160002204000075
:020000040000fa
:040164002204000071
:020000040000fa
:04016800220400006d
:020000040000fa
:04016c002204000069
:020000040000fa
:040170002204000065
:020000040000fa
:040174002204000061
:020000040000fa
:04017800220400005d
:020000040000fa
:04017c002204000059
:020000040000fa
:040180002204000055
:020000040000fa
:040184002204000051
:020000040000fa
:04018800220400004d
:020000040000fa
:04018c002204000049
:020000040000fa
:040190002204000045
:020000040000fa
:040194002204000041
:020000040000fa
:04019800220400003d
:020000040000fa
:04019c002204000039
:020000040000fa
:0401a0002204000035
:020000040000fa
:0401a4002204000031
:020000040000fa
:0401a800220400002d
:020000040000fa
:0401ac002204000029
:020000040000fa
:0401b0002204000025
:020000040000fa
:0401b4002204000021
:020000040000fa
:0401b800220400001d
:020000040000fa
:0401bc002204000019
:020000040000fa
:0401c0002204000015
:020000040000fa
:0401c4002204000011
:020000040000fa
:0401c800220400000d
:020000040000fa
:0401cc002204000009
:020000040000fa
:0401d0002204000005
:020000040000fa
:0401d4002204000001
:020000040000fa
:0401d80022040000fd
:020000040000fa
:0401dc0022040000f9
:020000040000fa
:0401e00022040000f5
:020000040000fa
:0401e40022040000f1
:020000040000fa
:0401e80022040000ed
:020000040000fa
:0401ec0022040000e9
:020000040000fa
:0401f00022040000e5
:020000040000fa
:0401f40022040000e1
:020000040000fa
:0401f80022040000dd
:020000040000fa
:0401fc0022040000d9
:020000040000fa
:0402000022040000d4
:020000040000fa
:0402040022040000d0
:020000040000fa
:0402080022040000cc
:020000040000fa
:04020c0022040000c8
:020000040000fa
:0402100022040000c4
:020000040000fa
:0402140022040000c0
:020000040000fa
:0402180022040000bc
:020000040000fa
:04021c0022040000b8
:020000040000fa
:0402200022040000b4
:020000040000fa
:0402240022040000b0
:020000040000fa
:0402280022040000ac
:020000040000fa
:04022c0022040000a8
:020000040000fa
:04023000e6030000e1
:020000040000fa
:0402340004040000be
:020000040000fa
:04023800220400009c
:020000040000fa
:04023c002204000098
:020000040000fa
:040240002204000094
:020000040000fa
:040244002204000090
:020000040000fa
:04024800220400008c
:020000040000fa
:04024c002204000088
:020000040000fa
:040250002204000084
:020000040000fa
:040254002204000080
:020000040000fa
:04025800220400007c
:020000040000fa
:04025c002204000078
:020000040000fa
:040260002204000074
:020000040000fa
:040264002204000070
:020000040000fa
:04026800220400006c
:020000040000fa
:04026c002204000068
:020000040000fa
:040270002204000064
:020000040000fa
:040274002204000060
:020000040000fa
:04027800220400005c
:020000040000fa
:04027c002204000058
:020000040000fa
:040280002204000054
:020000040000fa
:040284002204000050
:020000040000fa
:04028800220400004c
:020000040000fa
:04028c002204000048
:020000040000fa
:040290002204000044
:020000040000fa
:040294002204000040
:020000040000fa
:04029800220400003c
:020000040000fa
:04029c002204000038
:020000040000fa
:0402a0002204000034
:020000040000fa
:0402a4002204000030
:020000040000fa
:0402a800220400002c
:020000040000fa
:0402ac002204000028
:020000040000fa
:0402b0002204000024
:020000040000fa
:0402b4002204000020
:020000040000fa
:0402b800220400001c
:020000040000fa
:0402bc002204000018
:020000040000fa
:0402c0002204000014
:020000040000fa
:0402c4002204000010
:020000040000fa
:0402c800220400000c
:020000040000fa
:0402cc002204000008
:020000040000fa
:0402d0002204000004
:020000040000fa
:0402d4002204000000
:020000040000fa
:0402d80022040000fc
:020000040000fa
:0402dc0022040000f8
:020000040000fa
:0402e00022040000f4
:020000040000fa
:0402e40022040000f0
:020000040000fa
:0402e80022040000ec
:020000040000fa
:0402ec0022040000e8
:020000040000fa
:0402f00022040000e4
:020000040000fa
:0402f40022040000e0
:020000040000fa
:0402f80022040000dc
:020000040000fa
:0402fc0022040000d8
:020000040000fa
:0403000022040000d3
:020000040000fa
:0403040022040000cf
:020000040000fa
:0403080022040000cb
:020000040000fa
:04030c0022040000c7
:020000040000fa
:0403100022040000c3
:020000040000fa
:0403140022040000bf
:020000040000fa
:0403180022040000bb
:020000040000fa
:04031c0022040000b7
:020000040000fa
:100400000f0822000e6f23000e018800000000007c
:10041000000020000000e000020032000001200087
:100420002002880014000700760107000000e000a9
:1004300003003a0020512000010020000200370094
:100440000000200001002000810f70000100320038
:100450000f000700000020000000e0000200320052
:100460000000020000000000b20c020000000000ca
:100470000040da000000fe00200020000000e00044
:1004800002003200100020009001880000000600e9
:10049000a1028800800478000000eb001f003700f4
:1004a000e284440054a0b4009905ba00e2844400f8
:1004b00054a0b4009906ba00e284440054a0b400e9
:1004c0000006eb00476fde00fd07b200ae018800ba
:1004d000636ce10003003a000ad801000000eb0061
:1004e0000e003700606ce10008003a00004deb00a0
:1004f0000a05e800020039003420ec000af0a000f0
:100500008b05e900f9ff3e00040037006168e10057
:10051000010032000086eb000b00070019c7ba008b
:100520001905ba000e04e00003003a000a00e000da
:10053000dbff3a0000000600fe07b200ae028800b2
:100540008a047800f5ff37000cd0a300e20f4d00bd
:100550001c003b0089027800354dba000a05e8000e
:10056000020039003420ec000af0a0008b05e900fd
:100570000f003200254dba000a05e80002003900dc
:100580003420ec000af0a0008b05e90008003200de
:100590000c00e0000600320015cdba000a05e800a4
:1005a000020039003420ec000af0a0008b05e900bd
:1005b0008984e80054a0b4000b00e000e2ff3a0098
:1005c000000006009902ba00055d78008b05e9007d
:1005d000f7ff3200c82ade00055d78008b05e900d0
:1005e000f3ff32000c00e000f1ff320019ddba0029
:1005f000eeff37003600f800809fbe00829fbe00ed
:10060000849fbe00869fbe000000fa00c028a9009b
:100610000000eb00470a07000080fa004f03be000d
:100620004f02be004f01be004f00be003600f90071
:10063000004006003600f800809fbe00829fbe008a
:10064000849fbe00869fbe000000fa003e0a07009d
:10065000c048a90010002000360a07000080fa00f8
:100660004f03be004f02be004f01be004f00be0050
:100670003600f900004006003600f800809fbe00fa
:10068000829fbe00849fbe00869fbe000000fa00cd
:10069000c068a90020002000260a07000080fa0098
:1006a0004f03be004f02be004f01be004f00be0010
:1006b0003600f900004006003600f800809fbe00ba
:1006c000829fbe00849fbe00869fbe000000fa008d
:1006d000c088a90030002000160a07000080fa0038
:1006e0004f03be004f02be004f01be004f00be00d0
:1006f0003600f900004006003600f800809fbe007a
:10070000829fbe00849fbe00869fbe000000fa004c
:10071000c608a90070002000060a07000080fa0041
:100720004f03be004f02be004f01be004f00be008f
:100730003600f900004006003600f800809fbe0039
:10074000829fbe00849fbe00869fbe000000fa000c
:100750002146800000102000008060000000e000c2
:1007600003003200c508a900c0002000f1090700fd
:100770002146800000022000008060000000e000b0
:1007800003003200c4a8a90090002000e909070076
:1007900020468000700060000000e000030032008e
:1007a000c488a900a0002000e209070020468000bc
:1007b000610060000000e00003003200c408a900ee
:1007c000b0002000db090700ffff37003600f8000b
:1007d000809fbe00829fbe00849fbe00869fbe0099
:1007e0000000fa00c40607001048a9000080fa00c3
:1007f0004f03be004f02be004f01be004f00be00bf
:100800003600f900004006003600f800809fbe0068
:10081000829fbe00849fbe00869fbe000000fa003b
:10082000e70607001068a9000080fa004f03be0029
:100830004f02be004f01be004f00be003600f9005f
:10084000004006000040da000000fe008102d000f7
:100850008502e900011878000218780005184100a7
:10086000031878000418780005184200040878007e
:1008700000000600889fbe008a9fbe008c1f780083
:100880004400f800070f200027028800330590007d
:1008900008f02f000a40e1000200320000002000b2
:1008a000380037004600f8004800f8004a00f80019
:1008b0004c00f8004e00f8008a0a2c003a0288002a
:1008c0002304900058028800130490004802880016
:1008d000530590007a028800430590006a02880060
:1008e000811f7800630590000406780003029000e1
:1008f000620252000000e9008503780000800800d1
:1009000018000000320d78004618c300048009006a
:100910004618c4001201c4003100cd003c80ca005a
:1009200000b0cb000580cd001301c5000500cd004f
:100930008405e900880478000609c3000b800800dc
:10094000020000001900ca000609c4003900cd00e9
:100950001900ca000209c4003900cd001900ca00fc
:100960001201c4003900cd00ea0198004f00780060
:100970004e00f9004c00f9004a00f9004800f90067
:100980004600f9004400f9004f0678004f05be000c
:100990004f04be00000006000800fa008e81e80047
:1009a000800978006400470001087800660047006d
:1009b0000208780066004700100f78000a00370030
:1009c000640047001000780010407800e400470001
:1009d000910078000101e800e400470082087800f7
:1009e0000d0807001e0fe9001e0078000000e0005f
:1009f000f3ff3a0066004700100078000080fa001c
:100a000000000600000005008001780002003700a9
:100a1000b15978000201e9000200e000fcff3a0051
:040a200000000600cc
:020000040000fa
:100a2400561000002000000080000000121000009a
:100a34000200000082000000ffff0000001200001e
:100a440000080000820000008813a70013c51300eb
:100a5400e41303001421140040145f00147d1400f7
:100a64009c14bb0014d91400f81416001535150095
:100a74005415720015911500af15ce0015ec150034
:100a84000a162900164716006616840016a21600d8
:100a9400c116df0016fd16001b1739001757170083
:100aa4007617940017b21700d017ed00170b180033
:100ab40029184700186518008218a00018be1800ed
:100ac400db18f9001816190033195100196e1900b2
:100ad4008b19a80019c61900e31900001a1c1a0082
:100ae400391a56001a731a008f1aac001ac91a0060
:100af400e51a01001b1e1b003a1b56001b721b004b
:100b04008e1baa001bc61b00e21bfd001b191c0048
:100b1400351c50001c6b1c00871ca2001cbd1c0053
:100b2400d81cf3001c0e1d00281d43001d5e1d0073
:100b3400781d93001dad1d00c71de1001dfb1d00a8
:100b4400151e2f001e481e00621e7b001e951e00ef
:100b5400ae1ec7001ee01e00f91e12001f2a1f0051
:100b6400431f5c001f741f008c1fa4001fbc1f00c8
:100b7400d41fec001f0420001b203300204a200057
:100b840061207800208f2000a620bc0020d3200004
:100b9400e9200000211621002c21420021582100c7
:100ba4006d21830021982100ad21c20021d72100ad
:100bb400ec210100221522002a223e0022522200aa
:100bc40066227a00228e2200a122b40022c82200ca
:100bd400db22ee0022012300132326002338230006
:100be4004a235c00236e23008023920023a3230066
:100bf400b423c50023d62300e723f80023082400e8
:100c04001924290024392400492458002468240084
:100c14007724860024952400a424b30024c224004d
:100c2400d024de0024ec2400fa2408002515250035
:100c340023253000253d25004a255700256325003e
:100c44006f257c002588250093259f0025ab250072
:100c5400b625c10025cc2500d725e10025ec2500cb
:100c6400f6250000260a260014261d002627260045
:100c740030263900264226004a265300265b2600e9
:100c840063266b00267326007a26820026892600b6
:100c940090269700269d2600a426aa0026b02600aa
:100ca400b626bc0026c12600c626cc0026d12600c6
:100cb400d526da0026de2600e326e70026ea26000b
:100cc400ee26f20026f52600f826fb0026fe260076
:100cd400002702002705270007270800270a270006
:100ce4000b270d00270e27000e270f0027102700c3
:100cf400102710002710270010270f00270e2700a9
:100d04000e270d00270b27000a27080027072700b6
:100d14000527020027002700fe26fb0026f82600f0
:100d2400f526f20026ee2600ea26e70026e3260052
:100d3400de26da0026d52600d126cc0026c62600db
:100d4400c126bc0026b62600b026aa0026a426008a
:100d54009d2697002690260089268200267a260062
:100d640073266b00266326005b265300264a260062
:100d7400422639002630260027261d002614260088
:100d84000a26000026f62500ec25e10025d72500db
:100d9400cc25c10025b62500ab259f002593250051
:100da40088257c00256f250063255700254a2500ea
:100db4003d253000252325001525080025fa2400ab
:100dc400ec24de0024d02400c224b30024a4240094
:100dd400952486002477240068245800244924009c
:100de40039242900241924000824f80023e72300c7
:100df400d623c50023b42300a32392002380230019
:100e04006e235c00234a2300382326002313230087
:100e14000123ee0022db2200c822b40022a122001a
:100e24008e227a002266220052223e00222a2200ca
:100e34001522010022ec2100d721c20021ad21009e
:100e440098218300216d210058214200212c21008a
:100e54001621000021e92000d320bc0020a6200098
:100e64008f207800206120004a203300201b2000be
:100e74000420ec001fd41f00bc1fa4001f8c1f0003
:100e8400741f5c001f431f002a1f12001ff91e005d
:100e9400e01ec7001eae1e00951e7b001e621e00d3
:100ea400481e2f001e151e00fb1de1001dc71d005e
:100eb400ad1d93001d781d005e1d43001d281d00ff
:100ec4000e1df3001cd81c00bd1ca2001c871c00b6
:100ed4006b1c50001c351c00191cfd001be21b0080
:100ee400c61baa001b8e1b00721b56001b3a1b005c
:100ef4001e1b01001be51a00c91aac001a8f1a0048
:100f0400731a56001a391a001c1a00001ae3190041
:100f1400c619a800198b19006e195100193319004c
:100f24001619f90018db1800be18a0001882180062
:100f340065184700182918000b18ed0017d0170082
:100f4400b21794001776170057173900171b1700ac
:100f5400fd16df0016c11600a216840016661600e0
:100f640047162900160a1600ec15ce0015af150019
:100f740091157200155415003515160015f8140056
:100f8400d914bb00149c14007d145f001440140099
:100f94002114030014e41300c513a70013881300dd
:100fa40069134b00132c13000d13ef0012d0120021
:100fb400b112930012741200551237001218120065
:100fc400fa11db0011bc11009e117f0011611100a8
:100fd4004211240011061100e710c90010aa1000e4
:100fe4008c106e00104f10003110130010f50f001c
:100ff400d70fb9000f9a0f007c0f5e000f400f004f
:10100400230f05000fe70e00c90eab000e8e0e0075
:10101400700e52000e350e00170efa000ddd0d0095
:10102400bf0da2000d850d00680d4a000d2d0d00a9
:10103400100df4000cd70c00ba0c9d000c810c00b0
:10104400640c47000c2b0c000f0cf2000bd60b00a9
:10105400ba0b9e000b820b00660b4a000b2e0b0092
:10106400130bf7000adb0a00c00aa5000a890a006c
:101074006e0a53000a380a001d0a02000ae8090031
:10108400cd09b200099809007d09630009490900e6
:101094002f09150009fb0800e108c80008ae080084
:1010a40095087b000862080049083000081708000a
:1010b400fe07e60007cd0700b4079c00078407007d
:1010c4006c075400073c070024070c0007f50600d2
:1010d400dd06c60006af060098068100066a060013
:1010e40054063d00062706001006fa0005e4050034
:1010f400ce05b80005a305008d057800056305003d
:101104004e053900052405000f05fb0004e6040024
:10111400d204be0004aa040096048200046f0400f2
:101124005c0448000435040022040f0004fd03009d
:10113400ea03d80003c60300b403a200039003002b
:101144007e036d00035c03004b033a000329030094
:101154001803080003f70200e702d70002c70200e1
:10116400b802a800029902008a027b00026c020005
:101174005d024e0002400200320224000216020008
:101184000802fb0001ed0100e001d30001c60100eb
:10119400b901ad0001a1010094018800017d0100a5
:1011a40071016500015a01004f0144000139010039
:1011b4002f012400011a01001001060001fc0000a7
:1011c400f300e90000e00000d700ce0000c60000f4
:1011d400bd00b50000ad0000a5009d000096000014
:1011e4008e0087000080000079007300006c00000e
:1011f40066006000005a000054004f00004a0000de
:1012040044003f00003b000036003200002d000087
:1012140029002600002200001e001b000018000008
:1012240015001200001000000e000b000009000061
:101234000800060000050000030002000002000090
:101244000100000000000000000000000000000099
:101254000100020000020000030005000006000077
:1012640008000900000b00000e001000001200002e
:1012740015001800001b00001e00220000260000bc
:1012840029002d000032000036003b00003f000022
:1012940044004a00004f000054005a00006000005f
:1012a40066006c0000730000790080000087000075
:1012b4008e009600009d0000a500ad0000b5000062
:1012c400bd00c60000ce0000d700e00000e9000029
:1012d400f300fc000006010010011a0001240100c3
:1012e4002f013900014401004f015a00016501003a
:1012f40071017d00018801009401a10001ad01008c
:10130400b901c60001d30100e001ed0001fb0100b9
:10131400080216000224020032024000024e0200bb
:101324005d026c00027b02008a02990002a802009e
:10133400b802c70002d70200e702f7000208030060
:1013440018032900033a03004b035c00036d0300f8
:101354007e03900003a20300b403c60003d8030075
:10136400ea03fd00030f04002204350004480400ce
:101374005c046f00048204009604aa0004be040006
:10138400d204e60004fb04000f052400053905001f
:101394004e056300057805008d05a30005b805001a
:1013a400ce05e40005fa050010062700063d0600f8
:1013b40054066a00068106009806af0006c60600b9
:1013c400dd06f500060c070024073c00075407005f
:1013d4006c078400079c0700b407cd0007e60700ec
:1013e400fe0717000830080049086200087b08005f
:1013f4009508ae0008c80800e108fb0008150900bc
:101404002f094900096309007d09980009b2090000
:10141400cd09e80009020a001d0a38000a530a002f
:101424006e0a89000aa50a00c00adb000af70a004e
:10143400130b2e000b4a0b00660b82000b9e0b0055
:10144400ba0bd6000bf20b000f0c2b000c470c0050
:10145400640c81000c9d0c00ba0cd7000cf40c0039
:10146400100d2d000d4a0d00680d85000da20d0014
:10147400bf0ddd000dfa0d00170e35000e520e00e3
:10148400700e8e000eab0e00c90ee7000e050f00a5
:10149400230f40000f5e0f007c0f9a000fb90f005e
:1014a400d70ff5000f13100031104f00106e10000d
:1014b4008c10aa0010c91000e710060011241100b6
:1014c40042116100117f11009e11bc0011db11005b
:1014d400fa111800123712005512740012931200f8
:1014e400b112d00012ef12000d132c00134b130095
:1014f40069130000001a0000c0040000800000000e
:1015040000100000120000008000000076100000af
:10151400060000008000000014100000020000001b
:1015240080000000c01e0000c00100008200000016
:101534005f00000011bd110000ff000037bd37003f
:1015440000375f0000001100bd110000ffbe37002e
:101554007b38be00375f00000011bd001100ff00a2
:101564007c383900397c38005f00000011bd11005f
:1015740000ff3a0039f739003a395f0000001100e2
:10158400bd110000fff83900b53af800395f0000da
:101594000011bd001100ff00b63a73003bb63a00db
:1015a4005f00000011bd110000ff74003b313c00de
:1015b400743b5f0000001100bd110000ff323c00cd
:1015c400ef3c32003c5f00000011bd001100ff0041
:1015d400f03cad003df03c005f00000011bd110087
:1015e40000ffae003d6b3e00ae3d5f000000110009
:1015f400bd110000ff6c3e00293f6c003e5f0000ff
:101604000011bd001100ff002a3fe7003f2a3f0000
:101614005f00000011bd110000ffe8003fa540007d
:10162400e83f5f0000001100bd110000ffa640006c
:101634006341a600405f00000011bd001100ff00df
:1016440064412100426441005f00000011bd1100ab
:1016540000ff220042df420022425f00000011002e
:10166400bd110000ffe042009d43e000425f000026
:101674000011bd001100ff009e435b00449e430027
:101684005f00000011bd110000ff5c00441945001b
:101694005c445f0000001100bd110000ff1a45000a
:1016a400d7451a00455f00000011bd001100ff007e
:1016b400d845950046d845005f00000011bd1100d3
:1016c40000ff96004653470096465f000000110055
:1016d400bd110000ff54470011485400475f00004b
:1016e4000011bd001100ff001248cf00481248004d
:1016f4005f00000011bd110000ffd000488d4900bb
:10170400d0485f0000001100bd110000ff8e4900a9
:101714004b4a8e00495f00000011bd001100ff001c
:101724004c4a09004b4c4a005f00000011bd1100f7
:1017340000ff0a004bc74b000a4b5f00000011007a
:10174400bd110000ffc84b00854cc8004b5f000072
:101754000011bd001100ff00864c43004d864c0073
:101764005f00000011bd110000ff44004d014e0058
:10177400444d5f0000001100bd110000ff024e0047
:10178400bf4e02004e0000000011000000010000e6
:1017940082000000eeffb900ff86ff005aff380008
:1017a400ff23ff001cff2600ff40ff0069ff9f008e
:1017b400ffdfff0025006d0000b10000ed001c00fc
:1017c4000139010042013400010e0100d2008200ff
:1017d40000220000b8ff4800ffdcfe007afe2b0068
:1017e400fef5fd00e0fdf200fd2cfe0093fe24005a
:1017f400ffdfff00bd00bb0001ce0200ed030f00c0
:10180400052606002a070e0008cb08005709ae007b
:1018140009cb0900ae09570009cb08000e082a00bd
:10182400072606000f05ed0003ce0200bb01bd0034
:1018340000dfff0024ff9300fe2cfe00f2fde00019
:10184400fdf5fd002bfe7a00fedcfe0048ffb8002b
:10185400ff2200008200d200000e01003401420089
:10186400013901001c01ed0000b100006d002500ec
:1018740000dfff009fff6900ff40ff0026ff1c0000
:10188400ff23ff0038ff5a00ff86ff00b9ffee0078
:10189400ff00000000000000000000000000000045
:1018a4000000000000000000000000000000000034
:1018b4000000000000000000000000000000000024
:1018c4000000000000000000000000000000000014
:1018d4000000000000000000000000000000000004
:1018e40000000000000000000000000000370000bd
:1018f40000180000800000001610000040000000e6
:1019040082000000c01ece001edc1e00ea1ef8008d
:101914001e061f00141f22001f301f003e1f4c0014
:101924001f5a1f00681f76001f841f00921fa0000b
:101934001fae1f00bc1fca001fd81f00e61ff40003
:101944001f02200010201e00202c20003a204800f6
:1019540020562000642072002000000000000000d7
:020000040000fa
:101964008200fa00490507003eaea8008040eb0063
:101974000e00e80001487800500507000000000050
:10198400900107000004a2000004e000fcff3a00fc
:1019940098010700000000008a0107000004e0002d
:1019a400fdff3a00970107006600470006020700a2
:1019b4006600470090007800004020000101780094
:1019c400050009000280d800308088000000000073
:1019d4007c0107000004a2000004e000fcff3a00c0
:1019e4008401070000000000760107000004e00005
:1019f400fdff3a0083010700600320000e00400051
:101a0400f1010700000000006e0107000004a200bd
:101a14000004e000fcff3a0076010700000000002b
:101a2400680107000004e000fdff3a0075010700ab
:101a3400e00420000e004000e30107000000000065
:101a4400600107000004a2000004e000fcff3a006b
:101a540068010700000000005a0107000004e000cc
:101a6400fdff3a0067010700600620000e004000f9
:101a7400d5010700600320000e00400090007800ac
:101a840080862600808f500048003a0080032000a2
:101a94000e0040009000780080862600808f500061
:101aa40044003a0002d0bf008080fb008004200084
:101ab4008088b9008000780000c4210000804000c4
:101ac400610320008e80400082012000cdfb0700ce
:101ad40002d0bf008080fb00800420008088b90011
:101ae400f800400000c4210000804000e104200010
:101af4008e80400082012000c2fb070002d0bf009c
:101b04008080fb00800420008088b900010320004d
:101b14008080400000c42100008040006106200055
:101b24008e80400082012000b6fb070002d0bf0077
:101b34000080fb008000e800700028000080600046
:101b44000000e00004003d000000e90081ff2f00d8
:101b5400008070000000e8000040780002f0b70048
:101b6400210021009140780003d0bf0080cf5000b5
:101b740012003a0003d0bf000080fb008000e800a0
:101b840070002800008060000000e00004003d00b8
:101b94000000e90081ff2f00008070000000e800d1
:101ba4000040780003f0b700050037000000000093
:101bb40003003700000000000100370000000000af
:101bc400000107000004a2000004e000fcff3a004a
:101bd4000801070000000000fa0007000004e0000c
:101be400fdff3a00070107007e0047007601070069
:101bf4007e00470010007800e10f500008003a0012
:101c0400000220000e00400010007800e20f500097
:101c140003003a0010c0b30004f0b7000a00370014
:101c24007e00470010007800e70f500006003a00dd
:101c3400000220000e00400010007800e80f500061
:101c440001003a000470ef00210021009140780067
:101c540003d0bf0080cf5000bc0032000e80e800eb
:101c64003100210091407800014878000e80e8009e
:101c7400104078008080fb00800420008088b90038
:101c8400e400400000c4210080804000640047005c
:101c94001108780064004700100078007f0060009d
:101ca4008e80e800914078000181fb0081042000cf
:101cb4008191b90082007800620420000101410092
:101cc40001c421008100410011017800800040001e
:101cd40000e8210000804000020878000040eb008a
:101ce400004f78000040eb00004f780035003700cb
:101cf4000e80e800104078000081fb001e80fb008d
:101d040063004000410220008191b9008200780004
:101d1400008040008000400000c42100008040009a
:101d240090007800000028000080400080007800c7
:101d3400e00720000e004000010878001e80fb0030
:101d44008000400060012100008040001002780003
:101d5400010820008e804000e00720000e004000b3
:101d6400130020000101780080007800040078004e
:101d7400b90307000e80e800104078000081fb00e2
:101d84001e80fb0063004000010820008e8040009c
:101d940091007800810178000100280081814100d0
:101da400410220008191b900820078000080400047
:101db4008000400000c42100008040000308780037
:101dc4001e4fe8001e407800ff4f5000c8ff360049
:101dd40010c0b30004f0b70004d0bf00e14f5000be
:101de4004c003a000e80e800104078008080fb0030
:101df400800420008088b900e400400000c4210071
:101e0400008040009000780030808000000178005d
:101e1400050009008280d8008000fd000000e00079
:101e24003c003a000e80e800104078008080fb00ff
:101e3400800420008088b9008000780000c421005c
:101e440000804000a15a2500010878000e80e800b7
:101e5400104078008080fb00800420008088b90056
:101e64008000780020c4210000804000a15a250091
:101e740001087800708080000000e800708088000d
:101e84000e80e800104078008080fb0072808000a3
:101e9400800420008088b9008000780040c42100bc
:101ea40000804000020878000e80e80010407800ae
:101eb4008080fb00708080007f0060000001400093
:101ec40000e8210000004100100178008004200097
:101ed4008088b9008000780060c82100008040003c
:101ee400020878003eaea90001c421000e80e8007b
:101ef400104078000081fb00800420008090b9002d
:101f0400008040000001eb0081042000f201070082
:101f14003eaea8000e80e800104078000080fb0070
:101f24008000e80070002800008060000000e000ed
:101f340004003d000000e90081ff2f0000807000d4
:101f44000000e8000040780003f0b7000000000043
:101f54009ffe37000000fa00d221ef001048a900cc
:101f64003048a8001068a9003068a8000080fa0072
:101f7400000006000000fa00d321a8000080fa0047
:101f8400000006000000fa00a00e800088800a000d
:101f9400000000000080fb0000f0a7000000ea0041
:101fa4000000ea004f00de00004078000080fa00e4
:101fb400000006000000fa00d321a9000080fa0006
:101fc400000006000000fa00a00e800099800a00bc
:101fd400000000000080fb0000f0a7000000ea0001
:101fe4000000ea004f00de00004078000080fa00a4
:101ff400000006000000fa00d301a8000080fa00e7
:10200400000006000000fa00d301a9000080fa00d5
:10201400000006000200fa0030002000000f7800e3
:10202400a10e800000002800008060000000e00095
:102034000300320040002000000f78001600370033
:10204400a00e8000dc800a00000000000080fb007d
:10205400e10f500007003200e20f50000800320088
:102064000000e00009003a000000eb00000f7800d7
:102074000900370020002000000f78000600370018
:1020840010002000000f780003003700300020000b
:10209400000f7800000000001e0078000080fa00a5
:1020a400000006000600fa000e81e800000978002e
:1020b40064004700010878000000eb00000f78007e
:1020c40014003700d10f8000001020000080600051
:1020d4000000e00014003a00f10f80000e80e800d8
:1020e40010007800010878000e80e80010007800e5
:1020f4008080e8000e80e800010878006400470052
:10210400100078008000e9006400470001087800ae
:102114001e0fe80064004700100078000000e00093
:10212400e8ff3a0001003700000000001e007800bc
:102134000080fa00000006000600fa000e81e800a4
:102144000009780064004700010878000000eb00f3
:10215400000f780013003700d00f80006200600089
:102164000000e00014003a000e80e800100078003f
:1021740010007800e00f88000e80e800100078005e
:102184008080e8000e80e8000108780064004700c1
:10219400100078008000e90064004700010878001e
:1021a4001e0fe80064004700100078000000e00003
:1021b400e9ff3a0001003700000000001e0078002b
:1021c4000080fa00000006000400fa008e80e80097
:1021d400800878000040eb00004f780048000700ba
:1021e4000004e0003e003200d10e80000e80e800c2
:1021f4001000780001087800e10e80000e80e800ed
:10220400100078000080e80001087800f10e8000da
:102214000e80e80010007800640040000108780097
:10222400010f80000e80e800100078006600400076
:1022340001087800110f80000e80e800100078007b
:102244006800400001087800210f80000e80e8003b
:10225400100078006a00400001087800310f800007
:102264000e80e800100078006c004000010878003f
:10227400410f80000e80e800100078006e004000de
:1022840001087800510f80000e80e80010007800eb
:102294007000400001087800610f80000e80e800a3
:1022a400100078007200400001087800710f80006f
:1022b4000e80e800100078007400400001087800e7
:1022c400810f80000e80e800100078007600400046
:1022d4000108780010c0b300004f780002003700f6
:1022e4000040eb00004f78001e4078000080fa00a8
:1022f400000006000000fa000080fa00000006005a
:102304000000fa00c00e800000800a0000000000f7
:102314000080fb0000f0a7000000ea000000ea00d3
:102324004f00de00004078000080fa000000060044
:102334000400fa008e80e800800878000040eb007a
:10234400004f7800200007000004e000160032006f
:102354000e80e8001000780010007800900f8800cc
:102364000e80e800100078000080e800100078007b
:10237400a00f88000e80e800100078006400400080
:1023840010007800b00f88000e80e800100078007c
:102394006600400010007800c00f880010c0b30031
:1023a400004f7800020037000040eb00004f780037
:1023b4001e4078000080fa00000006000000fa00c9
:1023c4000080fa00000006000000fa00c00e800041
:1023d4006200600000f0a7000000ea000000e900cd
:1023e4004f00de00004078000080fa000000060084
:1023f4000000fa00ae22ef00b022ef00b422ef009a
:1024040090002000e0158800c022ef00c222ef00f7
:10241400c422ef00c622ef001002280060158800d5
:102424000080fa00000006000400fa00000f7800a3
:102434000e80e8000108780000000000a01580006c
:10244400620060000000e000fcff3a001e0078001b
:10245400104078000080fb00c015880000000000d8
:10246400a115800000022000008060000000e00050
:10247400fbff3a00c0158000004078008e80e80021
:1024840091007800804878000080fa00000006007f
:102494001800fa00f2014700800978007400470030
:1024a4000108780076004700020878000000eb007d
:1024b400000f78008000eb000e80e800010878002f
:1024c4008000eb006e004700010878008000eb00fc
:1024d4007000470001087800110020006c004700dc
:1024e4000108780072004700100078000000e00046
:1024f40007003a008000eb006a00470001087800fa
:10250400f000470064004700010878000600370027
:102514006a004700ec004700110878006400470097
:10252400f200470011087800760047001000780098
:102534000000e00007003a008000eb00680047005c
:1025440001087800ee0047006600470001087800a3
:102554000700370068004700ec00470011087800c6
:1025640066004700f60047001108780000000000ec
:10257400a0158000620060000000e000fcff3a004b
:1025840027003700a0158000620060000000e00012
:102594000d003a00640047001000780010407800f5
:1025a4000080fb00c015880064004700900078009c
:1025b4006a004700100078008080400064004700f3
:1025c400010878001e0fe800a11580000002200019
:1025d400008060000000e00011003a00c015800097
:1025e40000407800e60047009100780080487800b9
:1025f40066004700900078006800470010007800eb
:102604008080400066004700010878000e80e800e2
:10261400100078008000e8000e80e80001087800cf
:1026240074004700100078009e007800808f5000ee
:10263400d4ff390016003700a115800000022000e5
:10264400008060000000e00011003a00c015800026
:1026540000407800e6004700910078008048780048
:10266400660047009000780068004700100078007a
:102674008080400066004700010878000e80e80072
:10268400100078008000e8000e80e800010878005f
:102694000e80e80090007800740047001000780075
:1026a400808f5000e4ff39001e0078000080fa009b
:1026b400000006000400fa008e80e80080487800dc
:1026c4000e80e8008e00780057ff07001e40780057
:1026d4000080fa00000006000600fa00000f7800ef
:1026e4000e80e800010878006400470002087800c2
:1026f40064004700100178000e80e8009000780024
:102704001e00780062ff07000080fa000000060047
:102714000000fa00a01580000080fa000000060006
:102724000000fa00007c80000080fa00000006002f
:102734000200fa00faff0700000f78001e0078007c
:10274400240007000004e00002003200000028001a
:102754007d0007001e0078002c0007000004e00044
:102764000200320000002400770007001e007800f9
:10277400360007000004e0000200320000202000c0
:10278400710007001e007800400007000004e0000c
:1027940002003200000820006b0007001e007800d1
:1027a4004a0007000004e000020032000004200098
:1027b400650007001e007800540007000004e000d4
:1027c40002003200000120005f0007000080fa00d0
:1027d400000006000400fa008e80e80080087800fb
:1027e4000040eb00004f78000e80e80010007800f5
:1027f4000000e00002003d0010c0b300004f78006c
:102804001e4078000080fa00000006000400fa0070
:102814008e80e800800878000040eb00004f7800cc
:102824000e80e80090007800000024000080600022
:102834000000e0000200320010c0b300004f780036
:102844001e4078000080fa00000006000400fa0030
:102854008e80e800800878000040eb00004f78008c
:102864000e80e800900078000020200000806000c6
:102874000000e0000200320010c0b300004f7800f6
:102884001e4078000080fa00000006000400fa00f0
:102894008e80e800800878000040eb00004f78004c
:1028a4000e80e8009000780000082000008060009e
:1028b4000000e0000200320010c0b300004f7800b6
:1028c4001e4078000080fa00000006000400fa00b0
:1028d4008e80e800800878000040eb00004f78000c
:1028e4000e80e80090007800000420000080600062
:1028f4000000e0000200320010c0b300004f780076
:102904001e4078000080fa00000006000400fa006f
:102914008e80e800800878000040eb00004f7800cb
:102924000e80e80010007800700060000000e000f5
:102934000200320010c0b300004f78001e4078003f
:102944000080fa00000006000200fa00000f780080
:102954001e80ea00017c800001006000007c880089
:102964000080fa00000006000000fa00802fef004b
:102974000080fa00000006000000fa0000082000b1
:10298400c01188003a22ef003c22ef002002200010
:10299400f0118800800d2000001288004222ef0010
:1029a4004c22ef004e22ef005022ef005222ef00a3
:1029b4005422ef005622ef005822ef005a22ef0073
:1029c4005c22ef0039e2a80038a2a8003882a800ef
:1029d4000080fa00000006000000fa000000000079
:1029e400f0118000620060000000e000fcff3a008b
:1029f400e0118000620060000000e000010032008d
:102a04003c22a90020128000004078000080fa00d7
:102a1400000006000200fa00004f780000000000e9
:102a2400f0118000700060000000e000fcff3a003c
:102a34001e80fb00401288000080fa00000006009f
:102a44000000fa00f01180006200600000f0a700ae
:102a54000000ea000000e9004f00de0000407800ba
:102a64000080fa00000006000000fa00f011800067
:102a7400700060000000e00007003a00c11180000f
:102a840000022000008060000000e000020032002c
:102a940010002000010037000000eb000040780027
:102aa4000080fa00000006000000fa00e011800037
:102ab40077800a00000000000080fb0000f0a700ff
:102ac4000000ea000000ea004f00de000040780049
:102ad4000080fa00000006000400fa00f0118000f3
:102ae4008000eb00008fbe001e00be00c001dd00b0
:102af40002002000e01180008000eb000000710063
:102b0400818071000080fa00000006000000fa00d5
:102b140039e2a80038a2a8003882a8000080fa0090
:102b2400000006000000fa0039e2a90038a2a9005a
:102b34003882a9000080fa00000006000000fa00b4
:102b4400062eef00222eef0010002000f071880006
:102b54005a2eef00f0012000107088000080eb0076
:102b6400f070880070fc2300d0718800205022008f
:102b7400b07288000c2eef00282eef00442eef00d8
:102b8400602eef000a2eef00262eef00422eef00fb
:102b94005e2eef00082eef00242eef00402eef00f3
:102ba4005c2eef00f001200000708800e039200066
:102bb400e0708800300c2000c071880000402200c2
:102bc400a07288000000eb0051052000b146880087
:102bd400a10a2000b146880000688800916c80003a
:102be40000fc2f00008060006000b300906c88003f
:102bf400a16c8000f00f2c00808060000070200029
:102c040001007000a06c8800a16c800000fc2f0003
:102c1400008060005000b300a06c880020c3b300a3
:102c24002dedb700916c8000f00f2c000080600047
:102c34000080a000906c88000080200051052000d6
:102c4400b1468800a10a2000b146880000688800c7
:102c54000080fa00000006004600f800881f780093
:102c64008a1f78004800f8004a00f8004c00f80079
:102c74004e00f8004400f800c008f8000846800040
:102c8400fa9f2f000804650008468800300590006c
:102c940008f02f000a40e10002003200480b200037
:102ca40001003700080b200028028800200490004f
:102cb40058028800100490004802880050059000d3
:102cc4007a028800400590006a02880000029000a1
:102cd400630252008a0a2c003a0288008301e90048
:102ce400600590000380080006000000310d7800a4
:102cf4004618c300048009004618c4004218c400e2
:102d04001201c4003200cd006a0098004620ef0092
:102d140000000000c008f9004400f9004e00f9006a
:102d24004c00f9004a00f9004800f9004f0578000a
:102d34004f0478004600f90000000000000006007f
:102d4400c0009000000090000000e900008009002d
:102d54008018eb00000006000000fa0010002300b9
:102d6400307c880040062000407c8800100420004d
:102d7400507c880010102000707c880060092000be
:102d8400807c880010042000907c8800b82fef001d
:102d9400ba2fef00be2fef00002def00a42fef009d
:102da400a62fef00aa2fef00ae2fef00b02fef00f9
:102db400b22fef003200200080072000a10920007c
:102dc40053f82000804978008149780082497800ce
:102dd40012002000600420007105200043f8200048
:102de4008049780081497800824978000000000019
:102df400207c8000610060000000e000fcff3a00dd
:102e040000000000217c800000022000008060009f
:102e14000000e000fbff32000080fa000000060022
:102e24000000fa00707c8000ee800a0000000000c0
:102e34000080fb0000f0a7000000ea000000ea00a8
:102e44004f00de00004078000080fa000000060019
:102e54000200fa00000f780021028000200f2000f9
:102e6400008060001e007000200288000080fa00cc
:102e7400000006000000fa00c3e8a80000000000fb
:102e8400000000000080fa00000006000000fa00c4
:102e94002aff0700b0ff0700180007002dfc0700f9
:102ea40053fd0700b4fe0700f2ff070000022000f4
:102eb400e7ff07000080fa00000006000200fa00a5
:102ec4000040eb00004f7800070037001e80fb0035
:102ed4008000400060012100008040001000780064
:102ee40097ff07001e4fe8001e407800ff4f500078
:102ef400f6ff36000080fa00000006000000fa0029
:102f040001448000f08f2f00008060000080a0004a
:102f14000044880001448000f0ff28000080600025
:102f240000c0a000004488000080fa0000000600f1
:102f34000200fa00000f78009e007800918088005b
:102f4400ffff37000000fa006005210080077800c9
:102f5400e0062100000188000080fa00000006005d
:102f64000000fa003eaea9006207210051002000d3
:102f74000000eb00d8fd07003eaea8000080fa0078
:042f84000000060043
:00000001FF
