:10000000502C040000000000042A0000082A000010
:100010000C2A0000102A0000142A0000002A000008
:10002000182A0000002A00001C2A0000202A0000D4
:10003000242A0000282A00002C2A0000002A0000A0
:10004000302A0000342A0000382A00003C2A000030
:10005000402A0000442A0000482A00004C2A0000E0
:10006000502A0000542A0000582A00005C2A000090
:10007000602A0000642A0000682A00006C2A000040
:10008000702A0000742A0000782A00007C2A0000F0
:10009000802A0000842A0000882A00008C2A0000A0
:1000A000902A0000942A0000982A00009C2A000050
:1000B000A02A0000A42A0000A82A0000AC2A000000
:1000C000B02A0000002A0000B42A0000B82A00006C
:1000D000002A0000BC2A0000C02A0000C42A000038
:1000E000C82A0000CC2A0000D02A0000D42A000030
:1000F000D82A0000DC2A0000E02A0000E42A0000E0
:10010000002A0000002A0000002A0000002A000047
:10011000002A0000002A0000002A0000E82A00004F
:10012000EC2A0000F02A0000F42A0000F82A00005F
:10013000002A0000FC2A0000002B0000042B000015
:10014000082B0000002A0000002A0000002A0000FE
:10015000002A00000C2B0000102B0000142B0000C4
:10016000002A0000002A0000002A0000182B0000CE
:100170001C2B0000202B0000242B0000282B00004B
:100180002C2B0000302B0000342B0000382B0000FB
:100190003C2B0000402B0000442B0000482B0000AB
:1001A0004C2B0000502B0000542B0000582B00005B
:1001B0005C2B0000602B0000642B0000682B00000B
:1001C0006C2B0000702B0000742B0000782B0000BB
:1001D0007C2B0000802B0000842B0000882B00006B
:1001E0008C2B0000902B0000002A0000002A000049
:1001F000002A0000942B0000982B00009C2B00008C
:10020000A02B0000A42B0000A82B0000AC2B0000AA
:10021000B02B0000B42B0000B82B0000BC2B00005A
:10022000C02B0000C42B0000002A0000C82B0000D7
:10023000CC2B0000D02B0000D42B0000D82B0000CA
:10024000DC2B0000E02B0000E42B0000E82B00007A
:10025000EC2B0000F02B0000F42B0000F82B00002A
:10026000002A0000002A0000002A0000002A0000E6
:10027000FC2B0000002A0000002A0000002C0000D7
:10028000042C0000002A0000082C00000C2C0000A8
:10029000002A0000002A0000002A0000102C0000A4
:1002A000002A0000002A0000002A0000002A0000A6
:1002B000002A0000002A0000002A0000002A000096
:1002C000002A0000002A0000142C0000182C000056
:1002D0001C2C0000202C0000242C0000282C0000E6
:1002E0002C2C0000302C0000342C0000382C000096
:1002F0003C2C0000402C0000442C0000002A000090
:10030000002A0000002A0000002A0000002A000045
:10031000002A0000002A0000002A0000482C0000EB
:100320004C2C0000002A0000002A0000002A0000D7
:10033000002A0000002A0000002A0000002A000015
:10034000002A0000002A0000002A0000002A000005
:10035000002A0000002A0000002A0000002A0000F5
:10036000002A0000002A0000002A0000002A0000E5
:10037000002A0000002A0000002A0000002A0000D5
:10038000002A0000002A0000002A0000002A0000C5
:10039000002A0000002A0000002A0000002A0000B5
:1003A000002A0000002A0000002A0000002A0000A5
:1003B000002A0000002A0000002A0000002A000095
:1003C000002A0000002A0000002A0000002A000085
:1003D000002A0000002A0000002A0000002A000075
:1003E000002A0000002A0000002A0000002A000065
:1003F000002A0000002A0000002A0000002A000055
:10500000613D00000028000000000000FE77000065
:1050100005000000502C040000000000000000000B
:10502000020000000000000002000000020000007A
:10503000040000000000000000000000000000006C
:105040000000FA00062EEF00222EEF003E2EEF00A9
:105050005A2EEF00762EEF00F0012000107088002D
:10506000D0FF2F00F07088000080EB00D071880026
:105070000080EB00B0728800E0FF2F009073880082
:105080000C2EEF00282EEF00442EEF00602EEF00D4
:105090007C2EEF000A2EEF00262EEF00422EEF00AE
:1050A0005E2EEF007A2EEF00082EEF00242EEF0088
:1050B000402EEF005C2EEF00782EEF00F001200074
:1050C00000708800D0092000E0708800F00C2000FB
:1050D000C071880000C02700A07288000004200072
:1050E000807388000080FA00000006000000FA00CB
:1050F00010002300307C880060092000407C88007C
:105100008C2FEF0010042000507C8800101020002D
:10511000707C880060092000807C880010042000DA
:10512000907C88009A2FEF00B82FEF00BA2FEF0085
:10513000BE2FEF00002DEF00A42FEF00A62FEF00F1
:10514000A82FEF00AA2FEF00AE2FEF00B02FEF0037
:10515000B22FEF007200200080072000A10920007C
:1051600053F820008049780081497800824978000E
:105170000001EB00600420007105200043F82000CE
:105180008049780081497800824978000080FA00DF
:10519000000006000200FA000000EB00000F78009B
:1051A0002100070001003700000000001E00780009
:1051B00000F0A10000F0A7000000EA000000E900F4
:1051C0004F00DE00004078001E0FE8000004E00001
:1051D000F5FF3200B073800000800A00000000007C
:1051E0000004A200614060000080FB0061006000DC
:1051F000B17380000100A10001007000B07388004D
:10520000EAFF37000200FA00000F78002102800058
:10521000200F2000008060001E0070002002880027
:105220000080FA00000006000000FA0084FF07007A
:1052300020000700ADFF0700130007000002200058
:10524000F0FF07000080FA000000060002100000D6
:10525000200000008000000000100000020000009C
:1052600082000000FFFF0000000000000000FA00C4
:105270002000210080077800A001210000018800A3
:105280000080FA00000006000000FA00C3E8A80051
:1052900000000000000000000080FA00000006008E
:1052A0000200FA00000F78009E007800018088005C
:1052B000FFFF37000000FA000080FA00000006003F
:0452C000FFFFFF00ED
:10540000D22E040000000000E62D04000000000081
:10541000282E040000000000682E04000000000098
:10542000062E040000000000482E040000000000CA
:10543000882E040000000000002A04000000000084
:10544000002A040000000000002A04000000000000
:10545000002A040000000000002A040000000000F0
:10546000002A040000000000002A040000000000E0
:10547000002A040000000000002A040000000000D0
:10548000002A040000000000002A040000000000C0
:10549000002A040000000000002A040000000000B0
:1054A000002A040000000000002A040000000000A0
:1054B000002A040000000000002A04000000000090
:1054C000002A040000000000002A04000000000080
:1054D000002A040000000000002A04000000000070
:1054E000002A040000000000002A04000000000060
:1054F000002A040000000000002A04000000000050
:10550000002A040000000000002A0400000000003F
:10551000002A040000000000002A0400000000002F
:10552000002A040000000000002A0400000000001F
:10553000002A040000000000002A0400000000000F
:10554000002A040000000000002A040000000000FF
:10555000002A040000000000002A040000000000EF
:10556000002A040000000000002A040000000000DF
:10557000002A040000000000002A040000000000CF
:10558000002A040000000000002A040000000000BF
:10559000002A040000000000002A040000000000AF
:1055A000002A040000000000002A0400000000009F
:1055B000002A040000000000002A0400000000008F
:1055C000002A040000000000002A0400000000007F
:1055D000002A040000000000002A0400000000006F
:1055E000002A040000000000002A0400000000005F
:1055F000002A040000000000002A0400000000004F
:10560000002A040000000000002A0400000000003E
:10561000002A040000000000002A0400000000002E
:10562000002A040000000000002A0400000000001E
:10563000002A040000000000002A0400000000000E
:10564000002A040000000000002A040000000000FE
:10565000002A040000000000002A040000000000EE
:10566000002A040000000000002A040000000000DE
:10567000002A040000000000002A040000000000CE
:10568000002A040000000000002A040000000000BE
:10569000002A040000000000002A040000000000AE
:1056A000002A040000000000002A0400000000009E
:1056B000002A040000000000002A0400000000008E
:1056C000002A040000000000002A0400000000007E
:1056D000002A040000000000002A0400000000006E
:1056E000002A040000000000002A0400000000005E
:1056F000002A040000000000002A0400000000004E
:10570000002A040000000000002A0400000000003D
:10571000002A040000000000002A0400000000002D
:10572000002A040000000000002A0400000000001D
:10573000002A040000000000002A0400000000000D
:10574000002A040000000000002A040000000000FD
:10575000002A040000000000002A040000000000ED
:10576000002A040000000000002A040000000000DD
:10577000002A040000000000002A040000000000CD
:10578000002A040000000000002A040000000000BD
:10579000002A040000000000002A040000000000AD
:1057A000002A040000000000002A0400000000009D
:1057B000002A040000000000002A0400000000008D
:1057C000002A040000000000002A0400000000007D
:1057D000002A040000000000002A0400000000006D
:1057E000002A040000000000002A0400000000005D
:1057F000002A040000000000002A0400000000004D
:10580000002A040000000000002A0400000000003C
:10581000002A040000000000002A0400000000002C
:10582000002A040000000000002A0400000000001C
:10583000002A040000000000002A0400000000000C
:10584000002A040000000000002A040000000000FC
:10585000002A040000000000002A040000000000EC
:10586000002A040000000000002A040000000000DC
:10587000002A040000000000002A040000000000CC
:10588000002A040000000000002A040000000000BC
:10589000002A040000000000002A040000000000AC
:1058A0002F0221000EFF2C000E01880000002000B6
:1058B0000000E00002003200000120002002880009
:1058C00014000700390107000000E00003003A005F
:1058D000609222000100200002003700000020003A
:1058E00001002000810F70004220AE000F00070071
:1058F000000020000000E0004220AE000000020096
:1059000000000000CA280200000000000040DA0089
:105910000000FE00200020000000E0000200320035
:10592000100020009001880000000600A1028800FD
:10593000800478000000EB001F003700E284440080
:1059400054A0B4009905BA00E284440054A0B40005
:105950009906BA00E284440054A0B4000006EB00AB
:10596000476FDE00FD07B200AE018800636CE10006
:1059700003003A000AD801000000EB000E003700D7
:10598000606CE10008003A00004DEB000A05E800F9
:10599000020039003420EC000AF0A0008B05E90079
:1059A000F9FF3E00040037006168E10001003200A9
:1059B0000086EB000B00070019C7BA001905BA00F2
:1059C0000E04E00003003A000A00E000DBFF3A00AA
:1059D00000000600FE07B200AE0288008A047800CC
:1059E000F5FF37000CD0A300E20F4D001C003B0078
:1059F00089027800354DBA000A05E8000200390036
:105A00003420EC000AF0A0008B05E9000F00320002
:105A1000254DBA000A05E800020039003420EC00E8
:105A20000AF0A0008B05E900080032000C00E0003D
:105A30000600320015CDBA000A05E8000200390060
:105A40003420EC000AF0A0008B05E9008984E8000E
:105A500054A0B4000B00E000E2FF3A000000060092
:105A60009902BA00055D78008B05E900F7FF320066
:105A7000C82ADE00055D78008B05E900F3FF3200DF
:105A80000C00E000F1FF320019DDBA00EEFF370034
:105A90006100E10001003200100005005400F80030
:105AA00050102000A002880000F927001000BA0062
:105AB0005400F9000700260000F0A6008703D1007B
:105AC0000703780001C4FE000003EB000120200062
:105AD0009101880001962A00111303008703E90051
:105AE000FDFF3A0000F0A7000000050000F0A00054
:105AF00080C4FE0086037800F3FF3700040820000E
:105B0000010037000002EB006100E10001003200FB
:105B1000100005003200F8003400F800810278001F
:105B2000930188003200BE000100E0000C0032004A
:105B30000470A70000F0A00032037800C733DE0035
:105B4000848343004220AF008703E800A701880058
:105B5000F607B2007F30E100040032002000200090
:105B60003400F9003200F900000006008100E9006D
:105B70000500E00003003A00018009003210030034
:105B8000E8FF37000180090032900300D561AE00C4
:105B9000E4FF370030002000F1FF370050052000FF
:105BA000B00E8800A00A2000B00E8800D3E1A80043
:105BB0000000060050052000B00E8800A00A20005A
:105BC000B00E8800D3E1A900000006003600F800FE
:105BD000809FBE00829FBE00849FBE00869FBE0045
:105BE0000000FA00C028A9000000EB00ACFD07008F
:105BF0000080FA004F03BE004F02BE004F01BE00FE
:105C00004F00BE003600F900004006003600F800E4
:105C1000809FBE00829FBE00849FBE00869FBE0004
:105C20000000FA0091FD0700C048A9001000200004
:105C30009BFD07000080FA004F03BE004F02BE002C
:105C40004F01BE004F00BE003600F90000400600C4
:105C50003600F800809FBE00829FBE00849FBE0079
:105C6000869FBE000000FA00C068A9002000200046
:105C70008BFD07000080FA004F03BE004F02BE00FC
:105C80004F01BE004F00BE003600F9000040060084
:105C90003600F800809FBE00829FBE00849FBE0039
:105CA000869FBE000000FA00C088A90030002000D6
:105CB0007BFD07000080FA004F03BE004F02BE00CC
:105CC0004F01BE004F00BE003600F9000040060044
:105CD0003600F800809FBE00829FBE00849FBE00F9
:105CE000869FBE000000FA00C608A90070002000D0
:105CF0006BFD07000080FA004F03BE004F02BE009C
:105D00004F01BE004F00BE003600F9000040060003
:105D10003600F800809FBE00829FBE00849FBE00B8
:105D2000869FBE000000FA0021468000001020007F
:105D3000008060000000E00003003200C508A900F8
:105D4000C000200056FD0700214680000002200010
:105D5000008060000000E00003003200C4A8A90039
:105D6000900020004EFD070020468000700060007B
:105D70000000E00003003200C488A900A000200059
:105D800047FD070020468000610060000000E00041
:105D900003003200C408A900B000200040FD070045
:105DA000FFFF37000040DA000000FE0000000500A1
:02000004000AF0
:04FE0000FFFFFF0001
:04FE2000FFFFFF00E1
:04FE30007FFFFF0051
:04FE3800BFFFFF0009
:04FE40006003FF005C
:04FE4800FFFFFF00B9
:04FE5000DFFFFF00D1
:04FE58000000FF00A7
:04FE60000000FF009F
:04FE68000000FF0097
:04FE70000000FF008F
:04FE7800FFFFFF0089
:04FE8000FFFCFF0084
:04FE8800FFFFFF0079
:04FEB000FFFFFF0051
:04FEC000FFFFFF0041
:04FED000FFFFFF0031
:04FEE000FFFFFF0021
:04FEF000FFFFFF0011
:04FFF800FFFFFF0008
:020000040100F9
:04300000FFFFFF00CF
:00000001FF
